{
  "_format": "hh-sol-artifact-1",
  "contractName": "BaseCore",
  "sourceName": "contracts/BaseCore.sol",
  "abi": [
    {
      "inputs": [
        {
          "internalType": "address[5]",
          "name": "backingcoins_",
          "type": "address[5]"
        }
      ],
      "stateMutability": "nonpayable",
      "type": "constructor"
    },
    {
      "anonymous": false,
      "inputs": [
        {
          "indexed": true,
          "internalType": "address",
          "name": "tank",
          "type": "address"
        },
        {
          "indexed": true,
          "internalType": "address",
          "name": "user",
          "type": "address"
        },
        {
          "indexed": false,
          "internalType": "uint256",
          "name": "burntAmount",
          "type": "uint256"
        }
      ],
      "name": "BurnedBaseUSD",
      "type": "event"
    },
    {
      "anonymous": false,
      "inputs": [
        {
          "indexed": true,
          "internalType": "address",
          "name": "tank",
          "type": "address"
        },
        {
          "indexed": true,
          "internalType": "address",
          "name": "user",
          "type": "address"
        },
        {
          "indexed": false,
          "internalType": "uint256",
          "name": "shareAmount",
          "type": "uint256"
        },
        {
          "indexed": false,
          "internalType": "uint256",
          "name": "mintAmount",
          "type": "uint256"
        }
      ],
      "name": "MintedBaseUSD",
      "type": "event"
    },
    {
      "anonymous": false,
      "inputs": [
        {
          "indexed": true,
          "internalType": "address",
          "name": "previousOwner",
          "type": "address"
        },
        {
          "indexed": true,
          "internalType": "address",
          "name": "newOwner",
          "type": "address"
        }
      ],
      "name": "OwnershipTransferred",
      "type": "event"
    },
    {
      "inputs": [],
      "name": "BaseLendAddress",
      "outputs": [
        {
          "internalType": "contract BaseLend",
          "name": "",
          "type": "address"
        }
      ],
      "stateMutability": "view",
      "type": "function"
    },
    {
      "inputs": [
        {
          "internalType": "address",
          "name": "",
          "type": "address"
        }
      ],
      "name": "backingbalances",
      "outputs": [
        {
          "internalType": "uint256",
          "name": "",
          "type": "uint256"
        }
      ],
      "stateMutability": "view",
      "type": "function"
    },
    {
      "inputs": [],
      "name": "basestables",
      "outputs": [
        {
          "internalType": "contract IBase_stables",
          "name": "",
          "type": "address"
        }
      ],
      "stateMutability": "view",
      "type": "function"
    },
    {
      "inputs": [],
      "name": "baseusd",
      "outputs": [
        {
          "internalType": "contract IBase_usd",
          "name": "",
          "type": "address"
        }
      ],
      "stateMutability": "view",
      "type": "function"
    },
    {
      "inputs": [
        {
          "internalType": "uint256",
          "name": "amount",
          "type": "uint256"
        }
      ],
      "name": "burn",
      "outputs": [
        {
          "internalType": "uint256",
          "name": "amountBurnt",
          "type": "uint256"
        }
      ],
      "stateMutability": "nonpayable",
      "type": "function"
    },
    {
      "inputs": [
        {
          "internalType": "address",
          "name": "coin",
          "type": "address"
        }
      ],
      "name": "getBalance",
      "outputs": [
        {
          "internalType": "uint256",
          "name": "",
          "type": "uint256"
        }
      ],
      "stateMutability": "view",
      "type": "function"
    },
    {
      "inputs": [],
      "name": "indexNO",
      "outputs": [
        {
          "internalType": "uint256",
          "name": "",
          "type": "uint256"
        }
      ],
      "stateMutability": "view",
      "type": "function"
    },
    {
      "inputs": [
        {
          "internalType": "uint256",
          "name": "amount",
          "type": "uint256"
        }
      ],
      "name": "mint",
      "outputs": [
        {
          "internalType": "uint256",
          "name": "amountMinted",
          "type": "uint256"
        }
      ],
      "stateMutability": "nonpayable",
      "type": "function"
    },
    {
      "inputs": [],
      "name": "owner",
      "outputs": [
        {
          "internalType": "address",
          "name": "",
          "type": "address"
        }
      ],
      "stateMutability": "view",
      "type": "function"
    },
    {
      "inputs": [],
      "name": "renounceOwnership",
      "outputs": [],
      "stateMutability": "nonpayable",
      "type": "function"
    },
    {
      "inputs": [
        {
          "internalType": "address",
          "name": "baseusd_",
          "type": "address"
        },
        {
          "internalType": "address",
          "name": "basestables_",
          "type": "address"
        },
        {
          "internalType": "contract BaseLend",
          "name": "BaseLendAddress_",
          "type": "address"
        }
      ],
      "name": "setTokens",
      "outputs": [],
      "stateMutability": "nonpayable",
      "type": "function"
    },
    {
      "inputs": [
        {
          "internalType": "address",
          "name": "token",
          "type": "address"
        },
        {
          "internalType": "address payable",
          "name": "user",
          "type": "address"
        },
        {
          "internalType": "uint256",
          "name": "amount",
          "type": "uint256"
        }
      ],
      "name": "transferBaseUsdToUser",
      "outputs": [],
      "stateMutability": "nonpayable",
      "type": "function"
    },
    {
      "inputs": [
        {
          "internalType": "address",
          "name": "token",
          "type": "address"
        },
        {
          "internalType": "address payable",
          "name": "user",
          "type": "address"
        },
        {
          "internalType": "uint256",
          "name": "amount",
          "type": "uint256"
        }
      ],
      "name": "transferCollToUser",
      "outputs": [],
      "stateMutability": "nonpayable",
      "type": "function"
    },
    {
      "inputs": [
        {
          "internalType": "address",
          "name": "newOwner",
          "type": "address"
        }
      ],
      "name": "transferOwnership",
      "outputs": [],
      "stateMutability": "nonpayable",
      "type": "function"
    }
  ],
  "bytecode": "0x60806040523480156200001157600080fd5b5060405162002a0c38038062002a0c83398181016040528101906200003791906200028c565b620000576200004b6200007260201b60201c565b6200007a60201b60201c565b8060019060056200006a9291906200013e565b5050620003ce565b600033905090565b60008060009054906101000a900473ffffffffffffffffffffffffffffffffffffffff169050816000806101000a81548173ffffffffffffffffffffffffffffffffffffffff021916908373ffffffffffffffffffffffffffffffffffffffff1602179055508173ffffffffffffffffffffffffffffffffffffffff168173ffffffffffffffffffffffffffffffffffffffff167f8be0079c531659141344cd1fd0a4f28419497f9722a3daafe3b4186f6b6457e060405160405180910390a35050565b8260058101928215620001ad579160200282015b82811115620001ac5782518260006101000a81548173ffffffffffffffffffffffffffffffffffffffff021916908373ffffffffffffffffffffffffffffffffffffffff1602179055509160200191906001019062000152565b5b509050620001bc9190620001c0565b5090565b5b80821115620001db576000816000905550600101620001c1565b5090565b6000620001f6620001f084620002e1565b620002b8565b905080828560208602820111156200020d57600080fd5b60005b858110156200024157816200022688826200024b565b84526020840193506020830192505060018101905062000210565b5050509392505050565b6000815190506200025c81620003b4565b92915050565b600082601f8301126200027457600080fd5b600562000283848285620001df565b91505092915050565b600060a082840312156200029f57600080fd5b6000620002af8482850162000262565b91505092915050565b6000620002c4620002d7565b9050620002d282826200033e565b919050565b6000604051905090565b600067ffffffffffffffff821115620002ff57620002fe62000374565b5b602082029050919050565b600062000317826200031e565b9050919050565b600073ffffffffffffffffffffffffffffffffffffffff82169050919050565b6200034982620003a3565b810181811067ffffffffffffffff821117156200036b576200036a62000374565b5b80604052505050565b7f4e487b7100000000000000000000000000000000000000000000000000000000600052604160045260246000fd5b6000601f19601f8301169050919050565b620003bf816200030a565b8114620003cb57600080fd5b50565b61262e80620003de6000396000f3fe608060405234801561001057600080fd5b50600436106100ea5760003560e01c8063a0712d681161008c578063b2d3484711610066578063b2d3484714610227578063e1cf38f814610243578063f2fde38b14610273578063f8b2cb4f1461028f576100ea565b8063a0712d68146101bb578063a6f6a772146101eb578063b27feb2d14610209576100ea565b8063588e5992116100c8578063588e599214610159578063715018a614610177578063808cb613146101815780638da5cb5b1461019d576100ea565b806342966c68146100ef578063443be2091461011f57806350de8f271461013b575b600080fd5b610109600480360381019061010491906119b7565b6102bf565b6040516101169190611f37565b60405180910390f35b6101396004803603810190610134919061193f565b610627565b005b61014361076b565b6040516101509190611d96565b60405180910390f35b610161610791565b60405161016e9190611f37565b60405180910390f35b61017f610796565b005b61019b600480360381019061019691906118f0565b61081e565b005b6101a5610941565b6040516101b29190611cd7565b60405180910390f35b6101d560048036038101906101d091906119b7565b61096a565b6040516101e29190611f37565b60405180910390f35b6101f3610cba565b6040516102009190611db1565b60405180910390f35b610211610ce0565b60405161021e9190611d7b565b60405180910390f35b610241600480360381019061023c91906118f0565b610d06565b005b61025d600480360381019061025891906118c7565b610dc6565b60405161026a9190611f37565b60405180910390f35b61028d600480360381019061028891906118c7565b610dde565b005b6102a960048036038101906102a491906118c7565b610ed6565b6040516102b69190611f37565b60405180910390f35b6000600760009054906101000a900473ffffffffffffffffffffffffffffffffffffffff1673ffffffffffffffffffffffffffffffffffffffff166370a08231336040518263ffffffff1660e01b815260040161031c9190611cd7565b60206040518083038186803b15801561033457600080fd5b505afa158015610348573d6000803e3d6000fd5b505050506040513d601f19601f8201168201806040525081019061036c91906119e0565b8211156103ae576040517f08c379a00000000000000000000000000000000000000000000000000000000081526004016103a590611f17565b60405180910390fd5b60006005836103bd919061200e565b905060006040518060400160405280600481526020017f6275726e000000000000000000000000000000000000000000000000000000008152509050610478600160058060200260405190810160405280929190826005801561046b576020028201915b8160009054906101000a900473ffffffffffffffffffffffffffffffffffffffff1673ffffffffffffffffffffffffffffffffffffffff1681526020019060010190808311610421575b5050505050838684610f1f565b600760009054906101000a900473ffffffffffffffffffffffffffffffffffffffff1673ffffffffffffffffffffffffffffffffffffffff16639dc29fac33866040518363ffffffff1660e01b81526004016104d5929190611d52565b600060405180830381600087803b1580156104ef57600080fd5b505af1158015610503573d6000803e3d6000fd5b50505050600660009054906101000a900473ffffffffffffffffffffffffffffffffffffffff1673ffffffffffffffffffffffffffffffffffffffff16639dc29fac30866040518363ffffffff1660e01b8152600401610564929190611d52565b600060405180830381600087803b15801561057e57600080fd5b505af1158015610592573d6000803e3d6000fd5b505050508392503373ffffffffffffffffffffffffffffffffffffffff16600660009054906101000a900473ffffffffffffffffffffffffffffffffffffffff1673ffffffffffffffffffffffffffffffffffffffff167ff1b07012d9632bb3523f83b650c03197d1e5962c60b5a75b8e6ff656c9b0fa0d866040516106189190611f37565b60405180910390a35050919050565b61062f6110a1565b73ffffffffffffffffffffffffffffffffffffffff1661064d610941565b73ffffffffffffffffffffffffffffffffffffffff16146106a3576040517f08c379a000000000000000000000000000000000000000000000000000000000815260040161069a90611e77565b60405180910390fd5b82600660006101000a81548173ffffffffffffffffffffffffffffffffffffffff021916908373ffffffffffffffffffffffffffffffffffffffff16021790555081600760006101000a81548173ffffffffffffffffffffffffffffffffffffffff021916908373ffffffffffffffffffffffffffffffffffffffff16021790555080600860006101000a81548173ffffffffffffffffffffffffffffffffffffffff021916908373ffffffffffffffffffffffffffffffffffffffff160217905550505050565b600760009054906101000a900473ffffffffffffffffffffffffffffffffffffffff1681565b600581565b61079e6110a1565b73ffffffffffffffffffffffffffffffffffffffff166107bc610941565b73ffffffffffffffffffffffffffffffffffffffff1614610812576040517f08c379a000000000000000000000000000000000000000000000000000000000815260040161080990611e77565b60405180910390fd5b61081c60006110a9565b565b3373ffffffffffffffffffffffffffffffffffffffff16600860009054906101000a900473ffffffffffffffffffffffffffffffffffffffff1673ffffffffffffffffffffffffffffffffffffffff16146108ae576040517f08c379a00000000000000000000000000000000000000000000000000000000081526004016108a590611e57565b60405180910390fd5b8273ffffffffffffffffffffffffffffffffffffffff1663a9059cbb83836040518363ffffffff1660e01b81526004016108e9929190611cf2565b602060405180830381600087803b15801561090357600080fd5b505af1158015610917573d6000803e3d6000fd5b505050506040513d601f19601f8201168201806040525081019061093b919061198e565b50505050565b60008060009054906101000a900473ffffffffffffffffffffffffffffffffffffffff16905090565b60008060058361097a919061200e565b905060006040518060400160405280600481526020017f6d696e74000000000000000000000000000000000000000000000000000000008152509050610a356001600580602002604051908101604052809291908260058015610a28576020028201915b8160009054906101000a900473ffffffffffffffffffffffffffffffffffffffff1673ffffffffffffffffffffffffffffffffffffffff16815260200190600101908083116109de575b5050505050838684610f1f565b6000600860009054906101000a900473ffffffffffffffffffffffffffffffffffffffff1673ffffffffffffffffffffffffffffffffffffffff1663b76455ef600660009054906101000a900473ffffffffffffffffffffffffffffffffffffffff16876040518363ffffffff1660e01b8152600401610ab6929190611dcc565b60206040518083038186803b158015610ace57600080fd5b505afa158015610ae2573d6000803e3d6000fd5b505050506040513d601f19601f82011682018060405250810190610b0691906119e0565b9050600760009054906101000a900473ffffffffffffffffffffffffffffffffffffffff1673ffffffffffffffffffffffffffffffffffffffff166340c10f1933836040518363ffffffff1660e01b8152600401610b65929190611d52565b600060405180830381600087803b158015610b7f57600080fd5b505af1158015610b93573d6000803e3d6000fd5b50505050600660009054906101000a900473ffffffffffffffffffffffffffffffffffffffff1673ffffffffffffffffffffffffffffffffffffffff166340c10f1930876040518363ffffffff1660e01b8152600401610bf4929190611d52565b600060405180830381600087803b158015610c0e57600080fd5b505af1158015610c22573d6000803e3d6000fd5b505050508493503373ffffffffffffffffffffffffffffffffffffffff16600660009054906101000a900473ffffffffffffffffffffffffffffffffffffffff1673ffffffffffffffffffffffffffffffffffffffff167f36714ceb4e1c0238afe03b8f760fcad0af3026d4984f58724b356156248f86c48388604051610caa929190611f52565b60405180910390a3505050919050565b600660009054906101000a900473ffffffffffffffffffffffffffffffffffffffff1681565b600860009054906101000a900473ffffffffffffffffffffffffffffffffffffffff1681565b3373ffffffffffffffffffffffffffffffffffffffff16600860009054906101000a900473ffffffffffffffffffffffffffffffffffffffff1673ffffffffffffffffffffffffffffffffffffffff1614610d96576040517f08c379a0000000000000000000000000000000000000000000000000000000008152600401610d8d90611e57565b60405180910390fd5b610dc182828573ffffffffffffffffffffffffffffffffffffffff1661116d9092919063ffffffff16565b505050565b60096020528060005260406000206000915090505481565b610de66110a1565b73ffffffffffffffffffffffffffffffffffffffff16610e04610941565b73ffffffffffffffffffffffffffffffffffffffff1614610e5a576040517f08c379a0000000000000000000000000000000000000000000000000000000008152600401610e5190611e77565b60405180910390fd5b600073ffffffffffffffffffffffffffffffffffffffff168173ffffffffffffffffffffffffffffffffffffffff161415610eca576040517f08c379a0000000000000000000000000000000000000000000000000000000008152600401610ec190611e17565b60405180910390fd5b610ed3816110a9565b50565b6000600960008373ffffffffffffffffffffffffffffffffffffffff1673ffffffffffffffffffffffffffffffffffffffff168152602001908152602001600020549050919050565b600060059050600081118015610f355750600581145b610f74576040517f08c379a0000000000000000000000000000000000000000000000000000000008152600401610f6b90611eb7565b60405180910390fd5b83600584610f82919061200e565b14610fc2576040517f08c379a0000000000000000000000000000000000000000000000000000000008152600401610fb990611e97565b60405180910390fd5b60005b8181101561103257600085111561101f5761101e868260058110611012577f4e487b7100000000000000000000000000000000000000000000000000000000600052603260045260246000fd5b602002015186856111f3565b5b808061102a906121b4565b915050610fc5565b5060005b818110156110995761108686826005811061107a577f4e487b7100000000000000000000000000000000000000000000000000000000600052603260045260246000fd5b602002015186866113ca565b8080611091906121b4565b915050611036565b505050505050565b600033905090565b60008060009054906101000a900473ffffffffffffffffffffffffffffffffffffffff169050816000806101000a81548173ffffffffffffffffffffffffffffffffffffffff021916908373ffffffffffffffffffffffffffffffffffffffff1602179055508173ffffffffffffffffffffffffffffffffffffffff168173ffffffffffffffffffffffffffffffffffffffff167f8be0079c531659141344cd1fd0a4f28419497f9722a3daafe3b4186f6b6457e060405160405180910390a35050565b6111ee8363a9059cbb60e01b848460405160240161118c929190611d52565b604051602081830303815290604052907bffffffffffffffffffffffffffffffffffffffffffffffffffffffff19166020820180517bffffffffffffffffffffffffffffffffffffffffffffffffffffffff8381831617835250505050611543565b505050565b60405160200161120290611cad565b60405160208183030381529060405280519060200120816040516020016112299190611c96565b604051602081830303815290604052805190602001201415611273576112723330848673ffffffffffffffffffffffffffffffffffffffff1661160a909392919063ffffffff16565b5b60405160200161128290611cc2565b60405160208183030381529060405280519060200120816040516020016112a99190611c96565b6040516020818303038152906040528051906020012014156113c5576000600860009054906101000a900473ffffffffffffffffffffffffffffffffffffffff1673ffffffffffffffffffffffffffffffffffffffff16633e55dcc7600660009054906101000a900473ffffffffffffffffffffffffffffffffffffffff16856040518363ffffffff1660e01b8152600401611346929190611dcc565b60206040518083038186803b15801561135e57600080fd5b505afa158015611372573d6000803e3d6000fd5b505050506040513d601f19601f8201168201806040525081019061139691906119e0565b90506113c333828673ffffffffffffffffffffffffffffffffffffffff1661116d9092919063ffffffff16565b505b505050565b8273ffffffffffffffffffffffffffffffffffffffff166370a08231306040518263ffffffff1660e01b81526004016114039190611cd7565b60206040518083038186803b15801561141b57600080fd5b505afa15801561142f573d6000803e3d6000fd5b505050506040513d601f19601f8201168201806040525081019061145391906119e0565b61145c84610ed6565b10156114d25781600582611470919061200e565b14156114cd5781600960008573ffffffffffffffffffffffffffffffffffffffff1673ffffffffffffffffffffffffffffffffffffffff16815260200190815260200160002060008282546114c59190611fb8565b925050819055505b61153e565b816005826114e0919061200e565b141561153d5781600960008573ffffffffffffffffffffffffffffffffffffffff1673ffffffffffffffffffffffffffffffffffffffff1681526020019081526020016000206000828254611535919061203f565b925050819055505b5b505050565b60006115a5826040518060400160405280602081526020017f5361666545524332303a206c6f772d6c6576656c2063616c6c206661696c65648152508573ffffffffffffffffffffffffffffffffffffffff166116939092919063ffffffff16565b905060008151111561160557808060200190518101906115c5919061198e565b611604576040517f08c379a00000000000000000000000000000000000000000000000000000000081526004016115fb90611ef7565b60405180910390fd5b5b505050565b61168d846323b872dd60e01b85858560405160240161162b93929190611d1b565b604051602081830303815290604052907bffffffffffffffffffffffffffffffffffffffffffffffffffffffff19166020820180517bffffffffffffffffffffffffffffffffffffffffffffffffffffffff8381831617835250505050611543565b50505050565b60606116a284846000856116ab565b90509392505050565b6060824710156116f0576040517f08c379a00000000000000000000000000000000000000000000000000000000081526004016116e790611e37565b60405180910390fd5b6116f9856117bf565b611738576040517f08c379a000000000000000000000000000000000000000000000000000000000815260040161172f90611ed7565b60405180910390fd5b6000808673ffffffffffffffffffffffffffffffffffffffff1685876040516117619190611c7f565b60006040518083038185875af1925050503d806000811461179e576040519150601f19603f3d011682016040523d82523d6000602084013e6117a3565b606091505b50915091506117b38282866117e2565b92505050949350505050565b6000808273ffffffffffffffffffffffffffffffffffffffff163b119050919050565b606083156117f257829050611842565b6000835111156118055782518084602001fd5b816040517f08c379a00000000000000000000000000000000000000000000000000000000081526004016118399190611df5565b60405180910390fd5b9392505050565b60008135905061185881612585565b92915050565b60008135905061186d8161259c565b92915050565b600081519050611882816125b3565b92915050565b600081359050611897816125ca565b92915050565b6000813590506118ac816125e1565b92915050565b6000815190506118c1816125e1565b92915050565b6000602082840312156118d957600080fd5b60006118e784828501611849565b91505092915050565b60008060006060848603121561190557600080fd5b600061191386828701611849565b93505060206119248682870161185e565b92505060406119358682870161189d565b9150509250925092565b60008060006060848603121561195457600080fd5b600061196286828701611849565b935050602061197386828701611849565b925050604061198486828701611888565b9150509250925092565b6000602082840312156119a057600080fd5b60006119ae84828501611873565b91505092915050565b6000602082840312156119c957600080fd5b60006119d78482850161189d565b91505092915050565b6000602082840312156119f257600080fd5b6000611a00848285016118b2565b91505092915050565b611a12816120df565b82525050565b611a2181612073565b82525050565b6000611a3282611f7b565b611a3c8185611f91565b9350611a4c818560208601612181565b80840191505092915050565b611a61816120f1565b82525050565b611a7081612115565b82525050565b611a7f81612139565b82525050565b6000611a9082611f86565b611a9a8185611f9c565b9350611aaa818560208601612181565b611ab38161225b565b840191505092915050565b6000611ac982611f86565b611ad38185611fad565b9350611ae3818560208601612181565b80840191505092915050565b6000611afc602683611f9c565b9150611b078261226c565b604082019050919050565b6000611b1f602683611f9c565b9150611b2a826122bb565b604082019050919050565b6000611b42602483611f9c565b9150611b4d8261230a565b604082019050919050565b6000611b65602083611f9c565b9150611b7082612359565b602082019050919050565b6000611b88605b83611f9c565b9150611b9382612382565b606082019050919050565b6000611bab603583611f9c565b9150611bb6826123f7565b604082019050919050565b6000611bce601d83611f9c565b9150611bd982612446565b602082019050919050565b6000611bf1600483611fad565b9150611bfc8261246f565b600482019050919050565b6000611c14602a83611f9c565b9150611c1f82612498565b604082019050919050565b6000611c37600483611fad565b9150611c42826124e7565b600482019050919050565b6000611c5a604c83611f9c565b9150611c6582612510565b606082019050919050565b611c79816120d5565b82525050565b6000611c8b8284611a27565b915081905092915050565b6000611ca28284611abe565b915081905092915050565b6000611cb882611be4565b9150819050919050565b6000611ccd82611c2a565b9150819050919050565b6000602082019050611cec6000830184611a18565b92915050565b6000604082019050611d076000830185611a09565b611d146020830184611c70565b9392505050565b6000606082019050611d306000830186611a18565b611d3d6020830185611a18565b611d4a6040830184611c70565b949350505050565b6000604082019050611d676000830185611a18565b611d746020830184611c70565b9392505050565b6000602082019050611d906000830184611a58565b92915050565b6000602082019050611dab6000830184611a67565b92915050565b6000602082019050611dc66000830184611a76565b92915050565b6000604082019050611de16000830185611a76565b611dee6020830184611c70565b9392505050565b60006020820190508181036000830152611e0f8184611a85565b905092915050565b60006020820190508181036000830152611e3081611aef565b9050919050565b60006020820190508181036000830152611e5081611b12565b9050919050565b60006020820190508181036000830152611e7081611b35565b9050919050565b60006020820190508181036000830152611e9081611b58565b9050919050565b60006020820190508181036000830152611eb081611b7b565b9050919050565b60006020820190508181036000830152611ed081611b9e565b9050919050565b60006020820190508181036000830152611ef081611bc1565b9050919050565b60006020820190508181036000830152611f1081611c07565b9050919050565b60006020820190508181036000830152611f3081611c4d565b9050919050565b6000602082019050611f4c6000830184611c70565b92915050565b6000604082019050611f676000830185611c70565b611f746020830184611c70565b9392505050565b600081519050919050565b600081519050919050565b600081905092915050565b600082825260208201905092915050565b600081905092915050565b6000611fc3826120d5565b9150611fce836120d5565b9250827fffffffffffffffffffffffffffffffffffffffffffffffffffffffffffffffff03821115612003576120026121fd565b5b828201905092915050565b6000612019826120d5565b9150612024836120d5565b9250826120345761203361222c565b5b828204905092915050565b600061204a826120d5565b9150612055836120d5565b925082821015612068576120676121fd565b5b828203905092915050565b600061207e826120b5565b9050919050565b6000612090826120b5565b9050919050565b60008115159050919050565b60006120ae82612073565b9050919050565b600073ffffffffffffffffffffffffffffffffffffffff82169050919050565b6000819050919050565b60006120ea8261215d565b9050919050565b60006120fc82612103565b9050919050565b600061210e826120b5565b9050919050565b600061212082612127565b9050919050565b6000612132826120b5565b9050919050565b60006121448261214b565b9050919050565b6000612156826120b5565b9050919050565b60006121688261216f565b9050919050565b600061217a826120b5565b9050919050565b60005b8381101561219f578082015181840152602081019050612184565b838111156121ae576000848401525b50505050565b60006121bf826120d5565b91507fffffffffffffffffffffffffffffffffffffffffffffffffffffffffffffffff8214156121f2576121f16121fd565b5b600182019050919050565b7f4e487b7100000000000000000000000000000000000000000000000000000000600052601160045260246000fd5b7f4e487b7100000000000000000000000000000000000000000000000000000000600052601260045260246000fd5b6000601f19601f8301169050919050565b7f4f776e61626c653a206e6577206f776e657220697320746865207a65726f206160008201527f6464726573730000000000000000000000000000000000000000000000000000602082015250565b7f416464726573733a20696e73756666696369656e742062616c616e636520666f60008201527f722063616c6c0000000000000000000000000000000000000000000000000000602082015250565b7f5468652063616c6c6572206d75737420626520426173654c656e6420636f6e7460008201527f7261637400000000000000000000000000000000000000000000000000000000602082015250565b7f4f776e61626c653a2063616c6c6572206973206e6f7420746865206f776e6572600082015250565b7f5175616e74697479206f6620737461626c6520636f696e7320746f206265206460008201527f65706f7369746564203d3d20416d6f756e74206f6620737461626c65636f696e60208201527f7320746f206265206d696e746564206469766964656420627920350000000000604082015250565b7f416d6f756e74206f6620737461626c65636f696e73206465706f73697465642060008201527f6d75737420626520657175616c20746f20666976650000000000000000000000602082015250565b7f416464726573733a2063616c6c20746f206e6f6e2d636f6e7472616374000000600082015250565b7f6d696e7400000000000000000000000000000000000000000000000000000000600082015250565b7f5361666545524332303a204552433230206f7065726174696f6e20646964206e60008201527f6f74207375636365656400000000000000000000000000000000000000000000602082015250565b7f6275726e00000000000000000000000000000000000000000000000000000000600082015250565b7f776974686472617720616d6f756e74206973206e6f74206c657373207468616e60008201527f206f7220657175616c20746f2074686520616d6f756e74206f6620626173652060208201527f737461626c65732068656c640000000000000000000000000000000000000000604082015250565b61258e81612073565b811461259957600080fd5b50565b6125a581612085565b81146125b057600080fd5b50565b6125bc81612097565b81146125c757600080fd5b50565b6125d3816120a3565b81146125de57600080fd5b50565b6125ea816120d5565b81146125f557600080fd5b5056fea26469706673582212204cc4a7b9213d4671c481d7248160391f5b2f0070279d727d15fae4769b049f2264736f6c63430008040033",
  "linkReferences": {},
  "deployedLinkReferences": {}
}