{
  "_format": "hh-sol-artifact-1",
  "contractName": "Base_usd",
  "sourceName": "contracts/Base_usd.sol",
  "abi": [
    {
      "inputs": [
        {
          "internalType": "address",
          "name": "_basecore",
          "type": "address"
        }
      ],
      "stateMutability": "nonpayable",
      "type": "constructor"
    },
    {
      "anonymous": false,
      "inputs": [
        {
          "indexed": true,
          "internalType": "address",
          "name": "owner",
          "type": "address"
        },
        {
          "indexed": true,
          "internalType": "address",
          "name": "spender",
          "type": "address"
        },
        {
          "indexed": false,
          "internalType": "uint256",
          "name": "value",
          "type": "uint256"
        }
      ],
      "name": "Approval",
      "type": "event"
    },
    {
      "anonymous": false,
      "inputs": [
        {
          "indexed": true,
          "internalType": "address",
          "name": "from",
          "type": "address"
        },
        {
          "indexed": true,
          "internalType": "address",
          "name": "to",
          "type": "address"
        },
        {
          "indexed": false,
          "internalType": "uint256",
          "name": "value",
          "type": "uint256"
        }
      ],
      "name": "Transfer",
      "type": "event"
    },
    {
      "inputs": [
        {
          "internalType": "address",
          "name": "owner",
          "type": "address"
        },
        {
          "internalType": "address",
          "name": "spender",
          "type": "address"
        }
      ],
      "name": "allowance",
      "outputs": [
        {
          "internalType": "uint256",
          "name": "",
          "type": "uint256"
        }
      ],
      "stateMutability": "view",
      "type": "function"
    },
    {
      "inputs": [
        {
          "internalType": "address",
          "name": "spender",
          "type": "address"
        },
        {
          "internalType": "uint256",
          "name": "amount",
          "type": "uint256"
        }
      ],
      "name": "approve",
      "outputs": [
        {
          "internalType": "bool",
          "name": "",
          "type": "bool"
        }
      ],
      "stateMutability": "nonpayable",
      "type": "function"
    },
    {
      "inputs": [
        {
          "internalType": "address",
          "name": "account",
          "type": "address"
        }
      ],
      "name": "balanceOf",
      "outputs": [
        {
          "internalType": "uint256",
          "name": "",
          "type": "uint256"
        }
      ],
      "stateMutability": "view",
      "type": "function"
    },
    {
      "inputs": [],
      "name": "basecore",
      "outputs": [
        {
          "internalType": "address",
          "name": "",
          "type": "address"
        }
      ],
      "stateMutability": "view",
      "type": "function"
    },
    {
      "inputs": [
        {
          "internalType": "address",
          "name": "account",
          "type": "address"
        },
        {
          "internalType": "uint256",
          "name": "amount",
          "type": "uint256"
        }
      ],
      "name": "burn",
      "outputs": [],
      "stateMutability": "nonpayable",
      "type": "function"
    },
    {
      "inputs": [
        {
          "internalType": "uint256",
          "name": "amount",
          "type": "uint256"
        }
      ],
      "name": "burnForSelf",
      "outputs": [],
      "stateMutability": "nonpayable",
      "type": "function"
    },
    {
      "inputs": [],
      "name": "decimals",
      "outputs": [
        {
          "internalType": "uint8",
          "name": "",
          "type": "uint8"
        }
      ],
      "stateMutability": "view",
      "type": "function"
    },
    {
      "inputs": [
        {
          "internalType": "address",
          "name": "spender",
          "type": "address"
        },
        {
          "internalType": "uint256",
          "name": "subtractedValue",
          "type": "uint256"
        }
      ],
      "name": "decreaseAllowance",
      "outputs": [
        {
          "internalType": "bool",
          "name": "",
          "type": "bool"
        }
      ],
      "stateMutability": "nonpayable",
      "type": "function"
    },
    {
      "inputs": [
        {
          "internalType": "address",
          "name": "spender",
          "type": "address"
        },
        {
          "internalType": "uint256",
          "name": "addedValue",
          "type": "uint256"
        }
      ],
      "name": "increaseAllowance",
      "outputs": [
        {
          "internalType": "bool",
          "name": "",
          "type": "bool"
        }
      ],
      "stateMutability": "nonpayable",
      "type": "function"
    },
    {
      "inputs": [
        {
          "internalType": "address",
          "name": "account",
          "type": "address"
        },
        {
          "internalType": "uint256",
          "name": "amount",
          "type": "uint256"
        }
      ],
      "name": "mint",
      "outputs": [],
      "stateMutability": "nonpayable",
      "type": "function"
    },
    {
      "inputs": [],
      "name": "name",
      "outputs": [
        {
          "internalType": "string",
          "name": "",
          "type": "string"
        }
      ],
      "stateMutability": "view",
      "type": "function"
    },
    {
      "inputs": [],
      "name": "symbol",
      "outputs": [
        {
          "internalType": "string",
          "name": "",
          "type": "string"
        }
      ],
      "stateMutability": "view",
      "type": "function"
    },
    {
      "inputs": [],
      "name": "totalSupply",
      "outputs": [
        {
          "internalType": "uint256",
          "name": "",
          "type": "uint256"
        }
      ],
      "stateMutability": "view",
      "type": "function"
    },
    {
      "inputs": [
        {
          "internalType": "address",
          "name": "to",
          "type": "address"
        },
        {
          "internalType": "uint256",
          "name": "amount",
          "type": "uint256"
        }
      ],
      "name": "transfer",
      "outputs": [
        {
          "internalType": "bool",
          "name": "",
          "type": "bool"
        }
      ],
      "stateMutability": "nonpayable",
      "type": "function"
    },
    {
      "inputs": [
        {
          "internalType": "address",
          "name": "from",
          "type": "address"
        },
        {
          "internalType": "address",
          "name": "to",
          "type": "address"
        },
        {
          "internalType": "uint256",
          "name": "amount",
          "type": "uint256"
        }
      ],
      "name": "transferFrom",
      "outputs": [
        {
          "internalType": "bool",
          "name": "",
          "type": "bool"
        }
      ],
      "stateMutability": "nonpayable",
      "type": "function"
    }
  ],
  "bytecode": "0x60806040523480156200001157600080fd5b5060405162001df538038062001df58339818101604052810190620000379190620001e6565b6040518060400160405280600881526020017f42617365207573640000000000000000000000000000000000000000000000008152506040518060400160405280600781526020017f42617365757364000000000000000000000000000000000000000000000000008152508160039080519060200190620000bb9291906200011f565b508060049080519060200190620000d49291906200011f565b50505080600560006101000a81548173ffffffffffffffffffffffffffffffffffffffff021916908373ffffffffffffffffffffffffffffffffffffffff16021790555050620002c5565b8280546200012d9062000246565b90600052602060002090601f0160209004810192826200015157600085556200019d565b82601f106200016c57805160ff19168380011785556200019d565b828001600101855582156200019d579182015b828111156200019c5782518255916020019190600101906200017f565b5b509050620001ac9190620001b0565b5090565b5b80821115620001cb576000816000905550600101620001b1565b5090565b600081519050620001e081620002ab565b92915050565b600060208284031215620001f957600080fd5b60006200020984828501620001cf565b91505092915050565b60006200021f8262000226565b9050919050565b600073ffffffffffffffffffffffffffffffffffffffff82169050919050565b600060028204905060018216806200025f57607f821691505b602082108114156200027657620002756200027c565b5b50919050565b7f4e487b7100000000000000000000000000000000000000000000000000000000600052602260045260246000fd5b620002b68162000212565b8114620002c257600080fd5b50565b611b2080620002d56000396000f3fe608060405234801561001057600080fd5b50600436106100f55760003560e01c806340c10f1911610097578063a457c2d711610066578063a457c2d714610288578063a9059cbb146102b8578063c5714744146102e8578063dd62ed3e14610304576100f5565b806340c10f191461020257806370a082311461021e57806395d89b411461024e5780639dc29fac1461026c576100f5565b806320fc7858116100d357806320fc78581461016657806323b872dd14610184578063313ce567146101b457806339509351146101d2576100f5565b806306fdde03146100fa578063095ea7b31461011857806318160ddd14610148575b600080fd5b610102610334565b60405161010f9190611442565b60405180910390f35b610132600480360381019061012d91906111b1565b6103c6565b60405161013f9190611427565b60405180910390f35b6101506103e9565b60405161015d91906115c4565b60405180910390f35b61016e6103f3565b60405161017b919061140c565b60405180910390f35b61019e60048036038101906101999190611162565b610419565b6040516101ab9190611427565b60405180910390f35b6101bc610448565b6040516101c991906115df565b60405180910390f35b6101ec60048036038101906101e791906111b1565b610451565b6040516101f99190611427565b60405180910390f35b61021c600480360381019061021791906111b1565b6104fb565b005b610238600480360381019061023391906110fd565b610599565b60405161024591906115c4565b60405180910390f35b6102566105e1565b6040516102639190611442565b60405180910390f35b610286600480360381019061028191906111b1565b610673565b005b6102a2600480360381019061029d91906111b1565b610711565b6040516102af9190611427565b60405180910390f35b6102d260048036038101906102cd91906111b1565b6107fb565b6040516102df9190611427565b60405180910390f35b61030260048036038101906102fd91906111ed565b61081e565b005b61031e60048036038101906103199190611126565b61082b565b60405161032b91906115c4565b60405180910390f35b60606003805461034390611728565b80601f016020809104026020016040519081016040528092919081815260200182805461036f90611728565b80156103bc5780601f10610391576101008083540402835291602001916103bc565b820191906000526020600020905b81548152906001019060200180831161039f57829003601f168201915b5050505050905090565b6000806103d16108b2565b90506103de8185856108ba565b600191505092915050565b6000600254905090565b600560009054906101000a900473ffffffffffffffffffffffffffffffffffffffff1681565b6000806104246108b2565b9050610431858285610a85565b61043c858585610b11565b60019150509392505050565b60006012905090565b60008061045c6108b2565b90506104f0818585600160008673ffffffffffffffffffffffffffffffffffffffff1673ffffffffffffffffffffffffffffffffffffffff16815260200190815260200160002060008973ffffffffffffffffffffffffffffffffffffffff1673ffffffffffffffffffffffffffffffffffffffff168152602001908152602001600020546104eb9190611616565b6108ba565b600191505092915050565b600560009054906101000a900473ffffffffffffffffffffffffffffffffffffffff1673ffffffffffffffffffffffffffffffffffffffff163373ffffffffffffffffffffffffffffffffffffffff161461058b576040517f08c379a000000000000000000000000000000000000000000000000000000000815260040161058290611584565b60405180910390fd5b6105958282610d92565b5050565b60008060008373ffffffffffffffffffffffffffffffffffffffff1673ffffffffffffffffffffffffffffffffffffffff168152602001908152602001600020549050919050565b6060600480546105f090611728565b80601f016020809104026020016040519081016040528092919081815260200182805461061c90611728565b80156106695780601f1061063e57610100808354040283529160200191610669565b820191906000526020600020905b81548152906001019060200180831161064c57829003601f168201915b5050505050905090565b600560009054906101000a900473ffffffffffffffffffffffffffffffffffffffff1673ffffffffffffffffffffffffffffffffffffffff163373ffffffffffffffffffffffffffffffffffffffff1614610703576040517f08c379a00000000000000000000000000000000000000000000000000000000081526004016106fa90611584565b60405180910390fd5b61070d8282610ef2565b5050565b60008061071c6108b2565b90506000600160008373ffffffffffffffffffffffffffffffffffffffff1673ffffffffffffffffffffffffffffffffffffffff16815260200190815260200160002060008673ffffffffffffffffffffffffffffffffffffffff1673ffffffffffffffffffffffffffffffffffffffff168152602001908152602001600020549050838110156107e2576040517f08c379a00000000000000000000000000000000000000000000000000000000081526004016107d990611564565b60405180910390fd5b6107ef82868684036108ba565b60019250505092915050565b6000806108066108b2565b9050610813818585610b11565b600191505092915050565b6108283382610ef2565b50565b6000600160008473ffffffffffffffffffffffffffffffffffffffff1673ffffffffffffffffffffffffffffffffffffffff16815260200190815260200160002060008373ffffffffffffffffffffffffffffffffffffffff1673ffffffffffffffffffffffffffffffffffffffff16815260200190815260200160002054905092915050565b600033905090565b600073ffffffffffffffffffffffffffffffffffffffff168373ffffffffffffffffffffffffffffffffffffffff16141561092a576040517f08c379a000000000000000000000000000000000000000000000000000000000815260040161092190611544565b60405180910390fd5b600073ffffffffffffffffffffffffffffffffffffffff168273ffffffffffffffffffffffffffffffffffffffff16141561099a576040517f08c379a0000000000000000000000000000000000000000000000000000000008152600401610991906114a4565b60405180910390fd5b80600160008573ffffffffffffffffffffffffffffffffffffffff1673ffffffffffffffffffffffffffffffffffffffff16815260200190815260200160002060008473ffffffffffffffffffffffffffffffffffffffff1673ffffffffffffffffffffffffffffffffffffffff168152602001908152602001600020819055508173ffffffffffffffffffffffffffffffffffffffff168373ffffffffffffffffffffffffffffffffffffffff167f8c5be1e5ebec7d5bd14f71427d1e84f3dd0314c0f7b2291e5b200ac8c7c3b92583604051610a7891906115c4565b60405180910390a3505050565b6000610a91848461082b565b90507fffffffffffffffffffffffffffffffffffffffffffffffffffffffffffffffff8114610b0b5781811015610afd576040517f08c379a0000000000000000000000000000000000000000000000000000000008152600401610af4906114c4565b60405180910390fd5b610b0a84848484036108ba565b5b50505050565b600073ffffffffffffffffffffffffffffffffffffffff168373ffffffffffffffffffffffffffffffffffffffff161415610b81576040517f08c379a0000000000000000000000000000000000000000000000000000000008152600401610b7890611524565b60405180910390fd5b600073ffffffffffffffffffffffffffffffffffffffff168273ffffffffffffffffffffffffffffffffffffffff161415610bf1576040517f08c379a0000000000000000000000000000000000000000000000000000000008152600401610be890611464565b60405180910390fd5b610bfc8383836110c9565b60008060008573ffffffffffffffffffffffffffffffffffffffff1673ffffffffffffffffffffffffffffffffffffffff16815260200190815260200160002054905081811015610c82576040517f08c379a0000000000000000000000000000000000000000000000000000000008152600401610c79906114e4565b60405180910390fd5b8181036000808673ffffffffffffffffffffffffffffffffffffffff1673ffffffffffffffffffffffffffffffffffffffff16815260200190815260200160002081905550816000808573ffffffffffffffffffffffffffffffffffffffff1673ffffffffffffffffffffffffffffffffffffffff1681526020019081526020016000206000828254610d159190611616565b925050819055508273ffffffffffffffffffffffffffffffffffffffff168473ffffffffffffffffffffffffffffffffffffffff167fddf252ad1be2c89b69c2b068fc378daa952ba7f163c4a11628f55a4df523b3ef84604051610d7991906115c4565b60405180910390a3610d8c8484846110ce565b50505050565b600073ffffffffffffffffffffffffffffffffffffffff168273ffffffffffffffffffffffffffffffffffffffff161415610e02576040517f08c379a0000000000000000000000000000000000000000000000000000000008152600401610df9906115a4565b60405180910390fd5b610e0e600083836110c9565b8060026000828254610e209190611616565b92505081905550806000808473ffffffffffffffffffffffffffffffffffffffff1673ffffffffffffffffffffffffffffffffffffffff1681526020019081526020016000206000828254610e759190611616565b925050819055508173ffffffffffffffffffffffffffffffffffffffff16600073ffffffffffffffffffffffffffffffffffffffff167fddf252ad1be2c89b69c2b068fc378daa952ba7f163c4a11628f55a4df523b3ef83604051610eda91906115c4565b60405180910390a3610eee600083836110ce565b5050565b600073ffffffffffffffffffffffffffffffffffffffff168273ffffffffffffffffffffffffffffffffffffffff161415610f62576040517f08c379a0000000000000000000000000000000000000000000000000000000008152600401610f5990611504565b60405180910390fd5b610f6e826000836110c9565b60008060008473ffffffffffffffffffffffffffffffffffffffff1673ffffffffffffffffffffffffffffffffffffffff16815260200190815260200160002054905081811015610ff4576040517f08c379a0000000000000000000000000000000000000000000000000000000008152600401610feb90611484565b60405180910390fd5b8181036000808573ffffffffffffffffffffffffffffffffffffffff1673ffffffffffffffffffffffffffffffffffffffff16815260200190815260200160002081905550816002600082825461104b919061166c565b92505081905550600073ffffffffffffffffffffffffffffffffffffffff168373ffffffffffffffffffffffffffffffffffffffff167fddf252ad1be2c89b69c2b068fc378daa952ba7f163c4a11628f55a4df523b3ef846040516110b091906115c4565b60405180910390a36110c4836000846110ce565b505050565b505050565b505050565b6000813590506110e281611abc565b92915050565b6000813590506110f781611ad3565b92915050565b60006020828403121561110f57600080fd5b600061111d848285016110d3565b91505092915050565b6000806040838503121561113957600080fd5b6000611147858286016110d3565b9250506020611158858286016110d3565b9150509250929050565b60008060006060848603121561117757600080fd5b6000611185868287016110d3565b9350506020611196868287016110d3565b92505060406111a7868287016110e8565b9150509250925092565b600080604083850312156111c457600080fd5b60006111d2858286016110d3565b92505060206111e3858286016110e8565b9150509250929050565b6000602082840312156111ff57600080fd5b600061120d848285016110e8565b91505092915050565b61121f816116a0565b82525050565b61122e816116b2565b82525050565b600061123f826115fa565b6112498185611605565b93506112598185602086016116f5565b611262816117b8565b840191505092915050565b600061127a602383611605565b9150611285826117c9565b604082019050919050565b600061129d602283611605565b91506112a882611818565b604082019050919050565b60006112c0602283611605565b91506112cb82611867565b604082019050919050565b60006112e3601d83611605565b91506112ee826118b6565b602082019050919050565b6000611306602683611605565b9150611311826118df565b604082019050919050565b6000611329602183611605565b91506113348261192e565b604082019050919050565b600061134c602583611605565b91506113578261197d565b604082019050919050565b600061136f602483611605565b915061137a826119cc565b604082019050919050565b6000611392602583611605565b915061139d82611a1b565b604082019050919050565b60006113b5600e83611605565b91506113c082611a6a565b602082019050919050565b60006113d8601f83611605565b91506113e382611a93565b602082019050919050565b6113f7816116de565b82525050565b611406816116e8565b82525050565b60006020820190506114216000830184611216565b92915050565b600060208201905061143c6000830184611225565b92915050565b6000602082019050818103600083015261145c8184611234565b905092915050565b6000602082019050818103600083015261147d8161126d565b9050919050565b6000602082019050818103600083015261149d81611290565b9050919050565b600060208201905081810360008301526114bd816112b3565b9050919050565b600060208201905081810360008301526114dd816112d6565b9050919050565b600060208201905081810360008301526114fd816112f9565b9050919050565b6000602082019050818103600083015261151d8161131c565b9050919050565b6000602082019050818103600083015261153d8161133f565b9050919050565b6000602082019050818103600083015261155d81611362565b9050919050565b6000602082019050818103600083015261157d81611385565b9050919050565b6000602082019050818103600083015261159d816113a8565b9050919050565b600060208201905081810360008301526115bd816113cb565b9050919050565b60006020820190506115d960008301846113ee565b92915050565b60006020820190506115f460008301846113fd565b92915050565b600081519050919050565b600082825260208201905092915050565b6000611621826116de565b915061162c836116de565b9250827fffffffffffffffffffffffffffffffffffffffffffffffffffffffffffffffff038211156116615761166061175a565b5b828201905092915050565b6000611677826116de565b9150611682836116de565b9250828210156116955761169461175a565b5b828203905092915050565b60006116ab826116be565b9050919050565b60008115159050919050565b600073ffffffffffffffffffffffffffffffffffffffff82169050919050565b6000819050919050565b600060ff82169050919050565b60005b838110156117135780820151818401526020810190506116f8565b83811115611722576000848401525b50505050565b6000600282049050600182168061174057607f821691505b6020821081141561175457611753611789565b5b50919050565b7f4e487b7100000000000000000000000000000000000000000000000000000000600052601160045260246000fd5b7f4e487b7100000000000000000000000000000000000000000000000000000000600052602260045260246000fd5b6000601f19601f8301169050919050565b7f45524332303a207472616e7366657220746f20746865207a65726f206164647260008201527f6573730000000000000000000000000000000000000000000000000000000000602082015250565b7f45524332303a206275726e20616d6f756e7420657863656564732062616c616e60008201527f6365000000000000000000000000000000000000000000000000000000000000602082015250565b7f45524332303a20617070726f766520746f20746865207a65726f20616464726560008201527f7373000000000000000000000000000000000000000000000000000000000000602082015250565b7f45524332303a20696e73756666696369656e7420616c6c6f77616e6365000000600082015250565b7f45524332303a207472616e7366657220616d6f756e742065786365656473206260008201527f616c616e63650000000000000000000000000000000000000000000000000000602082015250565b7f45524332303a206275726e2066726f6d20746865207a65726f2061646472657360008201527f7300000000000000000000000000000000000000000000000000000000000000602082015250565b7f45524332303a207472616e736665722066726f6d20746865207a65726f20616460008201527f6472657373000000000000000000000000000000000000000000000000000000602082015250565b7f45524332303a20617070726f76652066726f6d20746865207a65726f2061646460008201527f7265737300000000000000000000000000000000000000000000000000000000602082015250565b7f45524332303a2064656372656173656420616c6c6f77616e63652062656c6f7760008201527f207a65726f000000000000000000000000000000000000000000000000000000602082015250565b7f4e6f7420617574686f72697a6564000000000000000000000000000000000000600082015250565b7f45524332303a206d696e7420746f20746865207a65726f206164647265737300600082015250565b611ac5816116a0565b8114611ad057600080fd5b50565b611adc816116de565b8114611ae757600080fd5b5056fea26469706673582212200f28f0b5273014f5928648c47eaef79db2a311f8e39fe5a68aa460685ebd033c64736f6c63430008040033",
  "linkReferences": {},
  "deployedLinkReferences": {}
}