{
  "_format": "hh-sol-artifact-1",
  "contractName": "DefaultPoolConfiguration",
  "sourceName": "contracts/DefaultPoolConfiguration.sol",
  "abi": [
    {
      "inputs": [
        {
          "internalType": "uint256",
          "name": "_baseBorrowRate",
          "type": "uint256"
        },
        {
          "internalType": "uint256",
          "name": "_rateSlope1",
          "type": "uint256"
        },
        {
          "internalType": "uint256",
          "name": "_rateSlope2",
          "type": "uint256"
        },
        {
          "internalType": "uint256",
          "name": "_collateralPercent",
          "type": "uint256"
        },
        {
          "internalType": "uint256",
          "name": "_liquidationBonusPercent",
          "type": "uint256"
        }
      ],
      "stateMutability": "nonpayable",
      "type": "constructor"
    },
    {
      "inputs": [],
      "name": "EXCESS_UTILIZATION_RATE",
      "outputs": [
        {
          "internalType": "uint256",
          "name": "",
          "type": "uint256"
        }
      ],
      "stateMutability": "view",
      "type": "function"
    },
    {
      "inputs": [],
      "name": "OPTIMAL_UTILIZATION_RATE",
      "outputs": [
        {
          "internalType": "uint256",
          "name": "",
          "type": "uint256"
        }
      ],
      "stateMutability": "view",
      "type": "function"
    },
    {
      "inputs": [],
      "name": "baseBorrowRate",
      "outputs": [
        {
          "internalType": "uint256",
          "name": "",
          "type": "uint256"
        }
      ],
      "stateMutability": "view",
      "type": "function"
    },
    {
      "inputs": [
        {
          "internalType": "uint256",
          "name": "_totalBorrows",
          "type": "uint256"
        },
        {
          "internalType": "uint256",
          "name": "_totalLiquidity",
          "type": "uint256"
        }
      ],
      "name": "calculateInterestRate",
      "outputs": [
        {
          "internalType": "uint256",
          "name": "",
          "type": "uint256"
        }
      ],
      "stateMutability": "view",
      "type": "function"
    },
    {
      "inputs": [],
      "name": "collateralPercent",
      "outputs": [
        {
          "internalType": "uint256",
          "name": "",
          "type": "uint256"
        }
      ],
      "stateMutability": "view",
      "type": "function"
    },
    {
      "inputs": [],
      "name": "getBaseBorrowRate",
      "outputs": [
        {
          "internalType": "uint256",
          "name": "",
          "type": "uint256"
        }
      ],
      "stateMutability": "view",
      "type": "function"
    },
    {
      "inputs": [],
      "name": "getCollateralPercent",
      "outputs": [
        {
          "internalType": "uint256",
          "name": "",
          "type": "uint256"
        }
      ],
      "stateMutability": "view",
      "type": "function"
    },
    {
      "inputs": [],
      "name": "getLiquidationBonusPercent",
      "outputs": [
        {
          "internalType": "uint256",
          "name": "",
          "type": "uint256"
        }
      ],
      "stateMutability": "view",
      "type": "function"
    },
    {
      "inputs": [],
      "name": "getOptimalUtilizationRate",
      "outputs": [
        {
          "internalType": "uint256",
          "name": "",
          "type": "uint256"
        }
      ],
      "stateMutability": "view",
      "type": "function"
    },
    {
      "inputs": [
        {
          "internalType": "uint256",
          "name": "_totalBorrows",
          "type": "uint256"
        },
        {
          "internalType": "uint256",
          "name": "_totalLiquidity",
          "type": "uint256"
        }
      ],
      "name": "getUtilizationRate",
      "outputs": [
        {
          "internalType": "uint256",
          "name": "",
          "type": "uint256"
        }
      ],
      "stateMutability": "view",
      "type": "function"
    },
    {
      "inputs": [],
      "name": "liquidationBonusPercent",
      "outputs": [
        {
          "internalType": "uint256",
          "name": "",
          "type": "uint256"
        }
      ],
      "stateMutability": "view",
      "type": "function"
    },
    {
      "inputs": [],
      "name": "rateSlope1",
      "outputs": [
        {
          "internalType": "uint256",
          "name": "",
          "type": "uint256"
        }
      ],
      "stateMutability": "view",
      "type": "function"
    },
    {
      "inputs": [],
      "name": "rateSlope2",
      "outputs": [
        {
          "internalType": "uint256",
          "name": "",
          "type": "uint256"
        }
      ],
      "stateMutability": "view",
      "type": "function"
    }
  ],
  "bytecode": "0x608060405234801561001057600080fd5b5060405161081e38038061081e83398181016040528101906100329190610074565b8460008190555083600181905550826002819055508160038190555080600481905550505050505061010c565b60008151905061006e816100f5565b92915050565b600080600080600060a0868803121561008c57600080fd5b600061009a8882890161005f565b95505060206100ab8882890161005f565b94505060406100bc8882890161005f565b93505060606100cd8882890161005f565b92505060806100de8882890161005f565b9150509295509295909350565b6000819050919050565b6100fe816100eb565b811461010957600080fd5b50565b6107038061011b6000396000f3fe608060405234801561001057600080fd5b50600436106100cf5760003560e01c80635454a4b61161008c578063bf38668211610066578063bf38668214610206578063ca6389f314610224578063ccc1209414610242578063da423bd514610260576100cf565b80635454a4b61461019a578063a15f30ac146101b8578063a5796785146101d6576100cf565b806304366b58146100d457806317319873146100f25780631eedf5c7146101105780633dd6b14a1461012e57806345ade0511461014c5780634d489a181461017c575b600080fd5b6100dc61027e565b6040516100e9919061051e565b60405180910390f35b6100fa610288565b604051610107919061051e565b60405180910390f35b610118610294565b604051610125919061051e565b60405180910390f35b61013661029a565b604051610143919061051e565b60405180910390f35b610166600480360381019061016191906104d3565b6102a0565b604051610173919061051e565b60405180910390f35b6101846102cc565b604051610191919061051e565b60405180910390f35b6101a26102dc565b6040516101af919061051e565b60405180910390f35b6101c06102e2565b6040516101cd919061051e565b60405180910390f35b6101f060048036038101906101eb91906104d3565b6102ee565b6040516101fd919061051e565b60405180910390f35b61020e6103d9565b60405161021b919061051e565b60405180910390f35b61022c6103df565b604051610239919061051e565b60405180910390f35b61024a6103e8565b604051610257919061051e565b60405180910390f35b6102686103ee565b604051610275919061051e565b60405180910390f35b6000600354905090565b6702c68af0bb14000081565b60025481565b60045481565b60008082146102c1576102bc82846103f890919063ffffffff16565b6102c4565b60005b905092915050565b6000670b1a2bc2ec500000905090565b60015481565b670b1a2bc2ec50000081565b6000806102fb84846102a0565b9050670b1a2bc2ec50000081111561038c5760006103446702c68af0bb140000610336670b1a2bc2ec5000008561042f90919063ffffffff16565b6103f890919063ffffffff16565b905061038361035e8260025461044590919063ffffffff16565b61037560015460005461047c90919063ffffffff16565b61047c90919063ffffffff16565b925050506103d3565b6103cf6103be670b1a2bc2ec5000006103b06001548561044590919063ffffffff16565b6103f890919063ffffffff16565b60005461047c90919063ffffffff16565b9150505b92915050565b60005481565b60008054905090565b60035481565b6000600454905090565b600061042782610419670de0b6b3a76400008661049290919063ffffffff16565b6104a890919063ffffffff16565b905092915050565b6000818361043d919061061a565b905092915050565b6000610474670de0b6b3a7640000610466848661049290919063ffffffff16565b6104a890919063ffffffff16565b905092915050565b6000818361048a9190610539565b905092915050565b600081836104a091906105c0565b905092915050565b600081836104b6919061058f565b905092915050565b6000813590506104cd816106b6565b92915050565b600080604083850312156104e657600080fd5b60006104f4858286016104be565b9250506020610505858286016104be565b9150509250929050565b6105188161064e565b82525050565b6000602082019050610533600083018461050f565b92915050565b60006105448261064e565b915061054f8361064e565b9250827fffffffffffffffffffffffffffffffffffffffffffffffffffffffffffffffff0382111561058457610583610658565b5b828201905092915050565b600061059a8261064e565b91506105a58361064e565b9250826105b5576105b4610687565b5b828204905092915050565b60006105cb8261064e565b91506105d68361064e565b9250817fffffffffffffffffffffffffffffffffffffffffffffffffffffffffffffffff048311821515161561060f5761060e610658565b5b828202905092915050565b60006106258261064e565b91506106308361064e565b92508282101561064357610642610658565b5b828203905092915050565b6000819050919050565b7f4e487b7100000000000000000000000000000000000000000000000000000000600052601160045260246000fd5b7f4e487b7100000000000000000000000000000000000000000000000000000000600052601260045260246000fd5b6106bf8161064e565b81146106ca57600080fd5b5056fea264697066735822122075284fdff7a32a8fdb8d0947addb440cff1533a0964f85a8a61e0734929fc95f64736f6c63430008040033",
  "linkReferences": {},
  "deployedLinkReferences": {}
}