{
  "_format": "hh-sol-artifact-1",
  "contractName": "BaseLend",
  "sourceName": "contracts/BaseLend.sol",
  "abi": [
    {
      "anonymous": false,
      "inputs": [
        {
          "indexed": true,
          "internalType": "address",
          "name": "tank",
          "type": "address"
        },
        {
          "indexed": true,
          "internalType": "address",
          "name": "user",
          "type": "address"
        },
        {
          "indexed": false,
          "internalType": "uint256",
          "name": "borrowShares",
          "type": "uint256"
        },
        {
          "indexed": false,
          "internalType": "uint256",
          "name": "borrowAmount",
          "type": "uint256"
        }
      ],
      "name": "Borrow",
      "type": "event"
    },
    {
      "anonymous": false,
      "inputs": [
        {
          "indexed": true,
          "internalType": "address",
          "name": "tank",
          "type": "address"
        },
        {
          "indexed": true,
          "internalType": "address",
          "name": "user",
          "type": "address"
        },
        {
          "indexed": false,
          "internalType": "uint256",
          "name": "depositAmount",
          "type": "uint256"
        }
      ],
      "name": "DepositedCollateral",
      "type": "event"
    },
    {
      "anonymous": false,
      "inputs": [
        {
          "indexed": true,
          "internalType": "address",
          "name": "baseusdAddress",
          "type": "address"
        },
        {
          "indexed": true,
          "internalType": "address",
          "name": "poolConfigAddress",
          "type": "address"
        }
      ],
      "name": "IBTInitialized",
      "type": "event"
    },
    {
      "anonymous": false,
      "inputs": [
        {
          "indexed": true,
          "internalType": "address",
          "name": "pool",
          "type": "address"
        },
        {
          "indexed": true,
          "internalType": "address",
          "name": "basecollAddress",
          "type": "address"
        },
        {
          "indexed": true,
          "internalType": "address",
          "name": "poolConfigAddress",
          "type": "address"
        }
      ],
      "name": "NIBTInitialized",
      "type": "event"
    },
    {
      "anonymous": false,
      "inputs": [
        {
          "indexed": true,
          "internalType": "address",
          "name": "previousOwner",
          "type": "address"
        },
        {
          "indexed": true,
          "internalType": "address",
          "name": "newOwner",
          "type": "address"
        }
      ],
      "name": "OwnershipTransferred",
      "type": "event"
    },
    {
      "anonymous": false,
      "inputs": [
        {
          "indexed": true,
          "internalType": "address",
          "name": "tank",
          "type": "address"
        },
        {
          "indexed": true,
          "internalType": "address",
          "name": "user",
          "type": "address"
        },
        {
          "indexed": false,
          "internalType": "uint256",
          "name": "repayShares",
          "type": "uint256"
        },
        {
          "indexed": false,
          "internalType": "uint256",
          "name": "repayAmount",
          "type": "uint256"
        }
      ],
      "name": "Repay",
      "type": "event"
    },
    {
      "anonymous": false,
      "inputs": [
        {
          "indexed": true,
          "internalType": "address",
          "name": "tank",
          "type": "address"
        },
        {
          "indexed": false,
          "internalType": "uint256",
          "name": "cumulativeBorrowInterest",
          "type": "uint256"
        },
        {
          "indexed": false,
          "internalType": "uint256",
          "name": "totalBorrows",
          "type": "uint256"
        }
      ],
      "name": "TankInterestUpdated",
      "type": "event"
    },
    {
      "anonymous": false,
      "inputs": [
        {
          "indexed": true,
          "internalType": "address",
          "name": "priceOracleAddress",
          "type": "address"
        }
      ],
      "name": "TankPriceOracleUpdated",
      "type": "event"
    },
    {
      "anonymous": false,
      "inputs": [
        {
          "indexed": true,
          "internalType": "address",
          "name": "tank",
          "type": "address"
        },
        {
          "indexed": true,
          "internalType": "address",
          "name": "user",
          "type": "address"
        },
        {
          "indexed": false,
          "internalType": "uint256",
          "name": "withdrawAmount",
          "type": "uint256"
        }
      ],
      "name": "WithdrawnCollateral",
      "type": "event"
    },
    {
      "inputs": [
        {
          "internalType": "contract IBase_usd",
          "name": "_token",
          "type": "address"
        },
        {
          "internalType": "uint256",
          "name": "_shareAmount",
          "type": "uint256"
        }
      ],
      "name": "LendersLiquidityAmount",
      "outputs": [
        {
          "internalType": "uint256",
          "name": "",
          "type": "uint256"
        }
      ],
      "stateMutability": "view",
      "type": "function"
    },
    {
      "inputs": [
        {
          "internalType": "contract IBase_usd",
          "name": "token",
          "type": "address"
        },
        {
          "internalType": "uint256",
          "name": "_amount",
          "type": "uint256"
        }
      ],
      "name": "LendersShareAmount",
      "outputs": [
        {
          "internalType": "uint256",
          "name": "",
          "type": "uint256"
        }
      ],
      "stateMutability": "view",
      "type": "function"
    },
    {
      "inputs": [
        {
          "internalType": "address",
          "name": "token",
          "type": "address"
        },
        {
          "internalType": "uint256",
          "name": "amount",
          "type": "uint256"
        }
      ],
      "name": "RepaysShareAmount",
      "outputs": [
        {
          "internalType": "uint256",
          "name": "",
          "type": "uint256"
        }
      ],
      "stateMutability": "view",
      "type": "function"
    },
    {
      "inputs": [],
      "name": "basecollDeployer",
      "outputs": [
        {
          "internalType": "contract BasecollDeployer",
          "name": "",
          "type": "address"
        }
      ],
      "stateMutability": "view",
      "type": "function"
    },
    {
      "inputs": [],
      "name": "basecore",
      "outputs": [
        {
          "internalType": "contract BaseCore",
          "name": "",
          "type": "address"
        }
      ],
      "stateMutability": "view",
      "type": "function"
    },
    {
      "inputs": [],
      "name": "baseusd",
      "outputs": [
        {
          "internalType": "contract IBase_usd",
          "name": "",
          "type": "address"
        }
      ],
      "stateMutability": "view",
      "type": "function"
    },
    {
      "inputs": [
        {
          "internalType": "uint256",
          "name": "amount_",
          "type": "uint256"
        }
      ],
      "name": "borrowBaseusd",
      "outputs": [],
      "stateMutability": "nonpayable",
      "type": "function"
    },
    {
      "inputs": [
        {
          "internalType": "address",
          "name": "token",
          "type": "address"
        },
        {
          "internalType": "uint256",
          "name": "quantity",
          "type": "uint256"
        }
      ],
      "name": "depositColl",
      "outputs": [],
      "stateMutability": "nonpayable",
      "type": "function"
    },
    {
      "inputs": [],
      "name": "getIBTdata",
      "outputs": [
        {
          "internalType": "enum corelibrary.tankStatus",
          "name": "status",
          "type": "uint8"
        },
        {
          "internalType": "address",
          "name": "baseusdAddress",
          "type": "address"
        },
        {
          "internalType": "address",
          "name": "poolConfigAddress",
          "type": "address"
        },
        {
          "internalType": "uint256",
          "name": "totalBorrows",
          "type": "uint256"
        },
        {
          "internalType": "uint256",
          "name": "totalBorrowShares",
          "type": "uint256"
        },
        {
          "internalType": "uint256",
          "name": "totalLiquidity",
          "type": "uint256"
        },
        {
          "internalType": "uint256",
          "name": "totalAvailableLiquidity",
          "type": "uint256"
        },
        {
          "internalType": "uint256",
          "name": "lastUpdateTimestamp",
          "type": "uint256"
        }
      ],
      "stateMutability": "view",
      "type": "function"
    },
    {
      "inputs": [
        {
          "internalType": "address",
          "name": "token",
          "type": "address"
        }
      ],
      "name": "getNIBTdata",
      "outputs": [
        {
          "internalType": "enum corelibrary.tankStatus",
          "name": "status",
          "type": "uint8"
        },
        {
          "internalType": "address",
          "name": "baseCollAddress",
          "type": "address"
        },
        {
          "internalType": "address",
          "name": "poolConfigAddress",
          "type": "address"
        },
        {
          "internalType": "uint256",
          "name": "totalAvailableLiquidity",
          "type": "uint256"
        },
        {
          "internalType": "uint256",
          "name": "lastUpdateTimestamp",
          "type": "uint256"
        },
        {
          "internalType": "string",
          "name": "usdpair",
          "type": "string"
        }
      ],
      "stateMutability": "view",
      "type": "function"
    },
    {
      "inputs": [
        {
          "internalType": "address",
          "name": "token",
          "type": "address"
        }
      ],
      "name": "getTotalAvailableLiquidity",
      "outputs": [
        {
          "internalType": "uint256",
          "name": "",
          "type": "uint256"
        }
      ],
      "stateMutability": "view",
      "type": "function"
    },
    {
      "inputs": [
        {
          "internalType": "address",
          "name": "token",
          "type": "address"
        }
      ],
      "name": "getTotalLiquidity",
      "outputs": [
        {
          "internalType": "uint256",
          "name": "",
          "type": "uint256"
        }
      ],
      "stateMutability": "view",
      "type": "function"
    },
    {
      "inputs": [
        {
          "internalType": "address",
          "name": "_user",
          "type": "address"
        }
      ],
      "name": "getUserAccount",
      "outputs": [
        {
          "internalType": "uint256",
          "name": "totalLiquidityBalanceBase",
          "type": "uint256"
        },
        {
          "internalType": "uint256",
          "name": "totalCollateralBalanceBase",
          "type": "uint256"
        },
        {
          "internalType": "uint256",
          "name": "totalBorrowBalanceBase",
          "type": "uint256"
        }
      ],
      "stateMutability": "view",
      "type": "function"
    },
    {
      "inputs": [
        {
          "internalType": "address",
          "name": "_user",
          "type": "address"
        }
      ],
      "name": "getUserCompoundedBorrowBalance",
      "outputs": [
        {
          "internalType": "uint256",
          "name": "",
          "type": "uint256"
        }
      ],
      "stateMutability": "view",
      "type": "function"
    },
    {
      "inputs": [
        {
          "internalType": "address",
          "name": "_user",
          "type": "address"
        },
        {
          "internalType": "contract ERC20",
          "name": "token",
          "type": "address"
        }
      ],
      "name": "getUserCompoundedLiquidityBalance",
      "outputs": [
        {
          "internalType": "uint256",
          "name": "",
          "type": "uint256"
        }
      ],
      "stateMutability": "view",
      "type": "function"
    },
    {
      "inputs": [
        {
          "internalType": "address",
          "name": "_user",
          "type": "address"
        },
        {
          "internalType": "contract ERC20",
          "name": "_token",
          "type": "address"
        }
      ],
      "name": "getUserTankData",
      "outputs": [
        {
          "internalType": "uint256",
          "name": "compoundedLiquidityBalance",
          "type": "uint256"
        },
        {
          "internalType": "bool",
          "name": "userUsePoolAsCollateral",
          "type": "bool"
        }
      ],
      "stateMutability": "view",
      "type": "function"
    },
    {
      "inputs": [
        {
          "internalType": "contract ERC20",
          "name": "IBtoken",
          "type": "address"
        },
        {
          "internalType": "contract IPoolConfiguration",
          "name": "_poolConfig",
          "type": "address"
        }
      ],
      "name": "initIBT",
      "outputs": [],
      "stateMutability": "nonpayable",
      "type": "function"
    },
    {
      "inputs": [
        {
          "internalType": "contract ERC20",
          "name": "NIBtoken",
          "type": "address"
        },
        {
          "internalType": "contract IPoolConfiguration",
          "name": "_poolConfig",
          "type": "address"
        },
        {
          "internalType": "string",
          "name": "usdpair",
          "type": "string"
        }
      ],
      "name": "initNIBT",
      "outputs": [],
      "stateMutability": "nonpayable",
      "type": "function"
    },
    {
      "inputs": [
        {
          "internalType": "uint256",
          "name": "",
          "type": "uint256"
        }
      ],
      "name": "interestbearingtanklist",
      "outputs": [
        {
          "internalType": "contract ERC20",
          "name": "",
          "type": "address"
        }
      ],
      "stateMutability": "view",
      "type": "function"
    },
    {
      "inputs": [
        {
          "internalType": "address",
          "name": "_user",
          "type": "address"
        }
      ],
      "name": "isAccountHealthy",
      "outputs": [
        {
          "internalType": "bool",
          "name": "",
          "type": "bool"
        }
      ],
      "stateMutability": "view",
      "type": "function"
    },
    {
      "inputs": [
        {
          "internalType": "uint256",
          "name": "",
          "type": "uint256"
        }
      ],
      "name": "noninterestbearingtanklist",
      "outputs": [
        {
          "internalType": "contract ERC20",
          "name": "",
          "type": "address"
        }
      ],
      "stateMutability": "view",
      "type": "function"
    },
    {
      "inputs": [],
      "name": "owner",
      "outputs": [
        {
          "internalType": "address",
          "name": "",
          "type": "address"
        }
      ],
      "stateMutability": "view",
      "type": "function"
    },
    {
      "inputs": [],
      "name": "renounceOwnership",
      "outputs": [],
      "stateMutability": "nonpayable",
      "type": "function"
    },
    {
      "inputs": [
        {
          "internalType": "uint256",
          "name": "amount",
          "type": "uint256"
        }
      ],
      "name": "repayBaseUsd",
      "outputs": [],
      "stateMutability": "nonpayable",
      "type": "function"
    },
    {
      "inputs": [],
      "name": "reservePercent",
      "outputs": [
        {
          "internalType": "uint256",
          "name": "",
          "type": "uint256"
        }
      ],
      "stateMutability": "view",
      "type": "function"
    },
    {
      "inputs": [
        {
          "internalType": "contract ERC20",
          "name": "token",
          "type": "address"
        },
        {
          "internalType": "enum corelibrary.tankStatus",
          "name": "_status",
          "type": "uint8"
        }
      ],
      "name": "setIBTStatus",
      "outputs": [],
      "stateMutability": "nonpayable",
      "type": "function"
    },
    {
      "inputs": [
        {
          "internalType": "contract ERC20",
          "name": "token",
          "type": "address"
        },
        {
          "internalType": "enum corelibrary.tankStatus",
          "name": "_status",
          "type": "uint8"
        }
      ],
      "name": "setNIBTStatus",
      "outputs": [],
      "stateMutability": "nonpayable",
      "type": "function"
    },
    {
      "inputs": [
        {
          "internalType": "contract IDAIoraclePriceGetter",
          "name": "priceoracle_",
          "type": "address"
        }
      ],
      "name": "setPriceOracle",
      "outputs": [],
      "stateMutability": "nonpayable",
      "type": "function"
    },
    {
      "inputs": [
        {
          "internalType": "address",
          "name": "baseusd_",
          "type": "address"
        },
        {
          "internalType": "address",
          "name": "basecore_",
          "type": "address"
        },
        {
          "internalType": "contract BasecollDeployer",
          "name": "basecollDeployer_",
          "type": "address"
        }
      ],
      "name": "setTokens",
      "outputs": [],
      "stateMutability": "nonpayable",
      "type": "function"
    },
    {
      "inputs": [
        {
          "internalType": "address",
          "name": "newOwner",
          "type": "address"
        }
      ],
      "name": "transferOwnership",
      "outputs": [],
      "stateMutability": "nonpayable",
      "type": "function"
    },
    {
      "inputs": [
        {
          "internalType": "address",
          "name": "token",
          "type": "address"
        },
        {
          "internalType": "uint256",
          "name": "quantity",
          "type": "uint256"
        }
      ],
      "name": "withdrawColl",
      "outputs": [
        {
          "internalType": "string",
          "name": "",
          "type": "string"
        }
      ],
      "stateMutability": "nonpayable",
      "type": "function"
    }
  ],
  "bytecode": "0x608060405266b1a2bc2ec50000600b553480156200001c57600080fd5b506200003d620000316200004360201b60201c565b6200004b60201b60201c565b6200010f565b600033905090565b60008060009054906101000a900473ffffffffffffffffffffffffffffffffffffffff169050816000806101000a81548173ffffffffffffffffffffffffffffffffffffffff021916908373ffffffffffffffffffffffffffffffffffffffff1602179055508173ffffffffffffffffffffffffffffffffffffffff168173ffffffffffffffffffffffffffffffffffffffff167f8be0079c531659141344cd1fd0a4f28419497f9722a3daafe3b4186f6b6457e060405160405180910390a35050565b615ede806200011f6000396000f3fe608060405234801561001057600080fd5b50600436106101e45760003560e01c80638da5cb5b1161010f578063cf6cd5f4116100a2578063f568dd8e11610071578063f568dd8e146105d2578063f8c7746314610602578063fae4745f14610620578063fb47e0161461063c576101e4565b8063cf6cd5f414610545578063d5874c9914610575578063e278391714610591578063f2fde38b146105b6576101e4565b8063a6f6a772116100de578063a6f6a77214610496578063b76455ef146104b4578063c39ddde4146104e4578063c47e76a314610514576101e4565b80638da5cb5b146104105780639c373b1f1461042e5780639cdef7611461044a5780639de8ef7914610466576101e4565b80633bc8291a116101875780634892faba116101565780634892faba1461039e578063530e784f146103ba578063715018a6146103d65780638be14f68146103e0576101e4565b80633bc8291a146103015780633e55dcc71461031d57806341b3a8b51461034d578063443be20914610382576101e4565b8063181428ae116101c3578063181428ae1461025357806318c726b11461028357806320fc7858146102b357806336481862146102d1576101e4565b80628d535e146101e9578063042611f6146102075780631307bd6414610237575b600080fd5b6101f161066e565b6040516101fe9190614ed8565b60405180910390f35b610221600480360381019061021c9190614605565b610694565b60405161022e91906152b8565b60405180910390f35b610251600480360381019061024c919061475a565b61076f565b005b61026d6004803603810190610268919061467d565b610d22565b60405161027a91906152b8565b60405180910390f35b61029d600480360381019061029891906146b9565b610e22565b6040516102aa91906152b8565b60405180910390f35b6102bb610eb4565b6040516102c89190614ebd565b60405180910390f35b6102eb60048036038101906102e69190614605565b610eda565b6040516102f89190614ea2565b60405180910390f35b61031b600480360381019061031691906146b9565b610efa565b005b610337600480360381019061033291906147fd565b6113df565b60405161034491906152b8565b60405180910390f35b61036760048036038101906103629190614605565b611515565b60405161037996959493929190614f29565b60405180910390f35b61039c6004803603810190610397919061462e565b61166f565b005b6103b860048036038101906103b3919061471e565b6117b3565b005b6103d460048036038101906103cf9190614839565b611b9e565b005b6103de611ca1565b005b6103fa60048036038101906103f59190614605565b611d29565b60405161040791906152b8565b60405180910390f35b610418611ddd565b6040516104259190614df0565b60405180910390f35b61044860048036038101906104439190614908565b611e06565b005b610464600480360381019061045f91906147c1565b61211f565b005b610480600480360381019061047b9190614605565b612235565b60405161048d91906152b8565b60405180910390f35b61049e6122f4565b6040516104ab9190614f0e565b60405180910390f35b6104ce60048036038101906104c991906147fd565b61231a565b6040516104db91906152b8565b60405180910390f35b6104fe60048036038101906104f99190614908565b612462565b60405161050b9190614ef3565b60405180910390f35b61052e6004803603810190610529919061467d565b6124a1565b60405161053c9291906152d3565b60405180910390f35b61055f600480360381019061055a9190614908565b612547565b60405161056c9190614ef3565b60405180910390f35b61058f600480360381019061058a9190614908565b612586565b005b610599612c2a565b6040516105ad989796959493929190614f91565b60405180910390f35b6105d060048036038101906105cb9190614605565b612d77565b005b6105ec60048036038101906105e791906146b9565b612e6f565b6040516105f9919061500f565b60405180910390f35b61060a6134a6565b60405161061791906152b8565b60405180910390f35b61063a600480360381019061063591906147c1565b6134ac565b005b61065660048036038101906106519190614605565b6135c2565b60405161066593929190615325565b60405180910390f35b600960009054906101000a900473ffffffffffffffffffffffffffffffffffffffff1681565b600080600560008473ffffffffffffffffffffffffffffffffffffffff1673ffffffffffffffffffffffffffffffffffffffff1681526020019081526020016000206000600160009054906101000a900473ffffffffffffffffffffffffffffffffffffffff1673ffffffffffffffffffffffffffffffffffffffff1673ffffffffffffffffffffffffffffffffffffffff168152602001908152602001600020600101549050610767600160009054906101000a900473ffffffffffffffffffffffffffffffffffffffff16826138f4565b915050919050565b60005b600880549050811015610865578373ffffffffffffffffffffffffffffffffffffffff16600882815481106107d0577f4e487b7100000000000000000000000000000000000000000000000000000000600052603260045260246000fd5b9060005260206000200160009054906101000a900473ffffffffffffffffffffffffffffffffffffffff1673ffffffffffffffffffffffffffffffffffffffff161415610852576040517f08c379a0000000000000000000000000000000000000000000000000000000008152600401610849906150d8565b60405180910390fd5b808061085d90615755565b915050610772565b5060008373ffffffffffffffffffffffffffffffffffffffff166395d89b416040518163ffffffff1660e01b815260040160006040518083038186803b1580156108ae57600080fd5b505afa1580156108c2573d6000803e3d6000fd5b505050506040513d6000823e3d601f19601f820116820180604052508101906108eb919061488b565b6040516020016108fb9190614dac565b604051602081830303815290604052905060008473ffffffffffffffffffffffffffffffffffffffff166395d89b416040518163ffffffff1660e01b815260040160006040518083038186803b15801561095457600080fd5b505afa158015610968573d6000803e3d6000fd5b505050506040513d6000823e3d601f19601f82011682018060405250810190610991919061488b565b6040516020016109a19190614dce565b60405160208183030381529060405290506000600960009054906101000a900473ffffffffffffffffffffffffffffffffffffffff1673ffffffffffffffffffffffffffffffffffffffff16638d002cea8385896040518463ffffffff1660e01b8152600401610a1393929190615031565b602060405180830381600087803b158015610a2d57600080fd5b505af1158015610a41573d6000803e3d6000fd5b505050506040513d601f19601f82011682018060405250810190610a659190614862565b905060006040518060a0016040528060006002811115610aae577f4e487b7100000000000000000000000000000000000000000000000000000000600052602160045260246000fd5b81526020018373ffffffffffffffffffffffffffffffffffffffff1681526020018773ffffffffffffffffffffffffffffffffffffffff16815260200142815260200186815250905080600460008973ffffffffffffffffffffffffffffffffffffffff1673ffffffffffffffffffffffffffffffffffffffff16815260200190815260200160002060008201518160000160006101000a81548160ff02191690836002811115610b88577f4e487b7100000000000000000000000000000000000000000000000000000000600052602160045260246000fd5b021790555060208201518160000160016101000a81548173ffffffffffffffffffffffffffffffffffffffff021916908373ffffffffffffffffffffffffffffffffffffffff16021790555060408201518160010160006101000a81548173ffffffffffffffffffffffffffffffffffffffff021916908373ffffffffffffffffffffffffffffffffffffffff160217905550606082015181600201556080820151816003019080519060200190610c41929190614396565b509050506008879080600181540180825580915050600190039060005260206000200160009091909190916101000a81548173ffffffffffffffffffffffffffffffffffffffff021916908373ffffffffffffffffffffffffffffffffffffffff1602179055508573ffffffffffffffffffffffffffffffffffffffff168273ffffffffffffffffffffffffffffffffffffffff168873ffffffffffffffffffffffffffffffffffffffff167f051d95d0408e418831ac67ce8487621dbc2979a828efc7bf1701eae0d3a3f5fc60405160405180910390a450505050505050565b600080600460008473ffffffffffffffffffffffffffffffffffffffff1673ffffffffffffffffffffffffffffffffffffffff168152602001908152602001600020905060008160000160019054906101000a900473ffffffffffffffffffffffffffffffffffffffff1673ffffffffffffffffffffffffffffffffffffffff166370a08231866040518263ffffffff1660e01b8152600401610dc59190614df0565b60206040518083038186803b158015610ddd57600080fd5b505afa158015610df1573d6000803e3d6000fd5b505050506040513d601f19601f82011682018060405250810190610e159190614931565b9050809250505092915050565b600080600360008573ffffffffffffffffffffffffffffffffffffffff1673ffffffffffffffffffffffffffffffffffffffff1681526020019081526020016000209050600081600301541415610e7d576000915050610eae565b610eaa8160020154610e9c83600301548661399490919063ffffffff16565b6139aa90919063ffffffff16565b9150505b92915050565b600260009054906101000a900473ffffffffffffffffffffffffffffffffffffffff1681565b6000806000610ee8846135c2565b92509250508181111592505050919050565b600060036000600160009054906101000a900473ffffffffffffffffffffffffffffffffffffffff1673ffffffffffffffffffffffffffffffffffffffff1673ffffffffffffffffffffffffffffffffffffffff168152602001908152602001600020905060008160010160009054906101000a900473ffffffffffffffffffffffffffffffffffffffff1673ffffffffffffffffffffffffffffffffffffffff1663a57967858360020154610fd38560000160019054906101000a900473ffffffffffffffffffffffffffffffffffffffff16612235565b6040518363ffffffff1660e01b8152600401610ff09291906152fc565b60206040518083038186803b15801561100857600080fd5b505afa15801561101c573d6000803e3d6000fd5b505050506040513d601f19601f820116820180604052508101906110409190614931565b90506000611053828460050154426139c0565b9050600083600201549050611075846002015483613a1f90919063ffffffff16565b84600201819055506110be6110ab600b5461109d848860020154613a5690919063ffffffff16565b613a1f90919063ffffffff16565b8560040154613a6c90919063ffffffff16565b84600401819055504284600501819055508360000160019054906101000a900473ffffffffffffffffffffffffffffffffffffffff1673ffffffffffffffffffffffffffffffffffffffff167fb5d054d0917f6f863e4e041e010caf126ba684d1733b4075d6185e51d556028183866002015460405161113f9291906152fc565b60405180910390a26000600460008873ffffffffffffffffffffffffffffffffffffffff1673ffffffffffffffffffffffffffffffffffffffff1681526020019081526020016000209050600160028111156111c4577f4e487b7100000000000000000000000000000000000000000000000000000000600052602160045260246000fd5b8160000160009054906101000a900460ff16600281111561120e577f4e487b7100000000000000000000000000000000000000000000000000000000600052602160045260246000fd5b1461124e576040517f08c379a000000000000000000000000000000000000000000000000000000000815260040161124590615158565b60405180910390fd5b60008611611291576040517f08c379a0000000000000000000000000000000000000000000000000000000008152600401611288906151d8565b60405180910390fd5b6112e033600260009054906101000a900473ffffffffffffffffffffffffffffffffffffffff16888a73ffffffffffffffffffffffffffffffffffffffff16613a82909392919063ffffffff16565b8060000160019054906101000a900473ffffffffffffffffffffffffffffffffffffffff1673ffffffffffffffffffffffffffffffffffffffff166340c10f1933886040518363ffffffff1660e01b815260040161133f929190614e79565b600060405180830381600087803b15801561135957600080fd5b505af115801561136d573d6000803e3d6000fd5b505050503373ffffffffffffffffffffffffffffffffffffffff168773ffffffffffffffffffffffffffffffffffffffff167f8454282b08531cdbd2142ac846ae921ccea242b7bc97cc8fe966bf8d57f5efd9886040516113ce91906152b8565b60405180910390a350505050505050565b600080600360008573ffffffffffffffffffffffffffffffffffffffff1673ffffffffffffffffffffffffffffffffffffffff168152602001908152602001600020905060008160000160019054906101000a900473ffffffffffffffffffffffffffffffffffffffff1673ffffffffffffffffffffffffffffffffffffffff166318160ddd6040518163ffffffff1660e01b815260040160206040518083038186803b15801561148f57600080fd5b505afa1580156114a3573d6000803e3d6000fd5b505050506040513d601f19601f820116820180604052508101906114c79190614931565b905060008114156114dd5760009250505061150f565b61150a816114fc6114ed88612235565b8761399490919063ffffffff16565b6139aa90919063ffffffff16565b925050505b92915050565b600080600080600060606000600460008973ffffffffffffffffffffffffffffffffffffffff1673ffffffffffffffffffffffffffffffffffffffff16815260200190815260200160002090508060000160009054906101000a900460ff1696508060000160019054906101000a900473ffffffffffffffffffffffffffffffffffffffff1695508060010160009054906101000a900473ffffffffffffffffffffffffffffffffffffffff1694506115cd88611d29565b9350806002015492508060030180546115e5906156f2565b80601f0160208091040260200160405190810160405280929190818152602001828054611611906156f2565b801561165e5780601f106116335761010080835404028352916020019161165e565b820191906000526020600020905b81548152906001019060200180831161164157829003601f168201915b505050505091505091939550919395565b611677613b0b565b73ffffffffffffffffffffffffffffffffffffffff16611695611ddd565b73ffffffffffffffffffffffffffffffffffffffff16146116eb576040517f08c379a00000000000000000000000000000000000000000000000000000000081526004016116e2906151b8565b60405180910390fd5b82600160006101000a81548173ffffffffffffffffffffffffffffffffffffffff021916908373ffffffffffffffffffffffffffffffffffffffff16021790555081600260006101000a81548173ffffffffffffffffffffffffffffffffffffffff021916908373ffffffffffffffffffffffffffffffffffffffff16021790555080600960006101000a81548173ffffffffffffffffffffffffffffffffffffffff021916908373ffffffffffffffffffffffffffffffffffffffff160217905550505050565b60005b6007805490508110156118a9578273ffffffffffffffffffffffffffffffffffffffff1660078281548110611814577f4e487b7100000000000000000000000000000000000000000000000000000000600052603260045260246000fd5b9060005260206000200160009054906101000a900473ffffffffffffffffffffffffffffffffffffffff1673ffffffffffffffffffffffffffffffffffffffff161415611896576040517f08c379a000000000000000000000000000000000000000000000000000000000815260040161188d906150d8565b60405180910390fd5b80806118a190615755565b9150506117b6565b5060006040518060e00160405280600060028111156118f1577f4e487b7100000000000000000000000000000000000000000000000000000000600052602160045260246000fd5b8152602001600160009054906101000a900473ffffffffffffffffffffffffffffffffffffffff1673ffffffffffffffffffffffffffffffffffffffff1681526020018373ffffffffffffffffffffffffffffffffffffffff16815260200160008152602001600081526020016000815260200142815250905080600360008573ffffffffffffffffffffffffffffffffffffffff1673ffffffffffffffffffffffffffffffffffffffff16815260200190815260200160002060008201518160000160006101000a81548160ff021916908360028111156119fc577f4e487b7100000000000000000000000000000000000000000000000000000000600052602160045260246000fd5b021790555060208201518160000160016101000a81548173ffffffffffffffffffffffffffffffffffffffff021916908373ffffffffffffffffffffffffffffffffffffffff16021790555060408201518160010160006101000a81548173ffffffffffffffffffffffffffffffffffffffff021916908373ffffffffffffffffffffffffffffffffffffffff160217905550606082015181600201556080820151816003015560a0820151816004015560c082015181600501559050506007839080600181540180825580915050600190039060005260206000200160009091909190916101000a81548173ffffffffffffffffffffffffffffffffffffffff021916908373ffffffffffffffffffffffffffffffffffffffff1602179055508173ffffffffffffffffffffffffffffffffffffffff16600160009054906101000a900473ffffffffffffffffffffffffffffffffffffffff1673ffffffffffffffffffffffffffffffffffffffff167f61b10061f6ef14df009c0fcafa48058c914025ce0a521dc772de0d0609f1699060405160405180910390a3505050565b611ba6613b0b565b73ffffffffffffffffffffffffffffffffffffffff16611bc4611ddd565b73ffffffffffffffffffffffffffffffffffffffff1614611c1a576040517f08c379a0000000000000000000000000000000000000000000000000000000008152600401611c11906151b8565b60405180910390fd5b80600a60006101000a81548173ffffffffffffffffffffffffffffffffffffffff021916908373ffffffffffffffffffffffffffffffffffffffff1602179055508073ffffffffffffffffffffffffffffffffffffffff167f7cbebf0808dab9e0c30051e902713e4002ad016d8da5bf8bce689d7fafed352b60405160405180910390a250565b611ca9613b0b565b73ffffffffffffffffffffffffffffffffffffffff16611cc7611ddd565b73ffffffffffffffffffffffffffffffffffffffff1614611d1d576040517f08c379a0000000000000000000000000000000000000000000000000000000008152600401611d14906151b8565b60405180910390fd5b611d276000613b13565b565b60008173ffffffffffffffffffffffffffffffffffffffff166370a08231600260009054906101000a900473ffffffffffffffffffffffffffffffffffffffff166040518263ffffffff1660e01b8152600401611d869190614df0565b60206040518083038186803b158015611d9e57600080fd5b505afa158015611db2573d6000803e3d6000fd5b505050506040513d601f19601f82011682018060405250810190611dd69190614931565b9050919050565b60008060009054906101000a900473ffffffffffffffffffffffffffffffffffffffff16905090565b600060036000600160009054906101000a900473ffffffffffffffffffffffffffffffffffffffff1673ffffffffffffffffffffffffffffffffffffffff1673ffffffffffffffffffffffffffffffffffffffff168152602001908152602001600020905060008160010160009054906101000a900473ffffffffffffffffffffffffffffffffffffffff1673ffffffffffffffffffffffffffffffffffffffff1663a57967858360020154611edf8560000160019054906101000a900473ffffffffffffffffffffffffffffffffffffffff16612235565b6040518363ffffffff1660e01b8152600401611efc9291906152fc565b60206040518083038186803b158015611f1457600080fd5b505afa158015611f28573d6000803e3d6000fd5b505050506040513d601f19601f82011682018060405250810190611f4c9190614931565b90506000611f5f828460050154426139c0565b9050600083600201549050611f81846002015483613a1f90919063ffffffff16565b8460020181905550611fca611fb7600b54611fa9848860020154613a5690919063ffffffff16565b613a1f90919063ffffffff16565b8560040154613a6c90919063ffffffff16565b84600401819055504284600501819055508360000160019054906101000a900473ffffffffffffffffffffffffffffffffffffffff1673ffffffffffffffffffffffffffffffffffffffff167fb5d054d0917f6f863e4e041e010caf126ba684d1733b4075d6185e51d556028183866002015460405161204b9291906152fc565b60405180910390a2600060036000600160009054906101000a900473ffffffffffffffffffffffffffffffffffffffff1673ffffffffffffffffffffffffffffffffffffffff1673ffffffffffffffffffffffffffffffffffffffff168152602001908152602001600020905060006120e6600160009054906101000a900473ffffffffffffffffffffffffffffffffffffffff1688610e22565b90506121168260000160019054906101000a900473ffffffffffffffffffffffffffffffffffffffff1682613bd7565b50505050505050565b612127613b0b565b73ffffffffffffffffffffffffffffffffffffffff16612145611ddd565b73ffffffffffffffffffffffffffffffffffffffff161461219b576040517f08c379a0000000000000000000000000000000000000000000000000000000008152600401612192906151b8565b60405180910390fd5b6000600360008473ffffffffffffffffffffffffffffffffffffffff1673ffffffffffffffffffffffffffffffffffffffff1681526020019081526020016000209050818160000160006101000a81548160ff0219169083600281111561222b577f4e487b7100000000000000000000000000000000000000000000000000000000600052602160045260246000fd5b0217905550505050565b600080600360008473ffffffffffffffffffffffffffffffffffffffff1673ffffffffffffffffffffffffffffffffffffffff16815260200190815260200160002090506122ec600360008573ffffffffffffffffffffffffffffffffffffffff1673ffffffffffffffffffffffffffffffffffffffff168152602001908152602001600020600401546122de6122cb86611d29565b8460020154613a6c90919063ffffffff16565b613a5690919063ffffffff16565b915050919050565b600160009054906101000a900473ffffffffffffffffffffffffffffffffffffffff1681565b600080600360008573ffffffffffffffffffffffffffffffffffffffff1673ffffffffffffffffffffffffffffffffffffffff1681526020019081526020016000209050600061236985612235565b905060008260000160019054906101000a900473ffffffffffffffffffffffffffffffffffffffff1673ffffffffffffffffffffffffffffffffffffffff166318160ddd6040518163ffffffff1660e01b815260040160206040518083038186803b1580156123d757600080fd5b505afa1580156123eb573d6000803e3d6000fd5b505050506040513d601f19601f8201168201806040525081019061240f9190614931565b90506000821480156124215750600081145b156124315784935050505061245c565b61245682612448838861399490919063ffffffff16565b6139aa90919063ffffffff16565b93505050505b92915050565b6007818154811061247257600080fd5b906000526020600020016000915054906101000a900473ffffffffffffffffffffffffffffffffffffffff1681565b6000806124ae8484610d22565b9150600560008573ffffffffffffffffffffffffffffffffffffffff1673ffffffffffffffffffffffffffffffffffffffff16815260200190815260200160002060008473ffffffffffffffffffffffffffffffffffffffff1673ffffffffffffffffffffffffffffffffffffffff16815260200190815260200160002060000160009054906101000a900460ff161590509250929050565b6008818154811061255757600080fd5b906000526020600020016000915054906101000a900473ffffffffffffffffffffffffffffffffffffffff1681565b600060036000600160009054906101000a900473ffffffffffffffffffffffffffffffffffffffff1673ffffffffffffffffffffffffffffffffffffffff1673ffffffffffffffffffffffffffffffffffffffff168152602001908152602001600020905060008160010160009054906101000a900473ffffffffffffffffffffffffffffffffffffffff1673ffffffffffffffffffffffffffffffffffffffff1663a5796785836002015461265f8560000160019054906101000a900473ffffffffffffffffffffffffffffffffffffffff16612235565b6040518363ffffffff1660e01b815260040161267c9291906152fc565b60206040518083038186803b15801561269457600080fd5b505afa1580156126a8573d6000803e3d6000fd5b505050506040513d601f19601f820116820180604052508101906126cc9190614931565b905060006126df828460050154426139c0565b9050600083600201549050612701846002015483613a1f90919063ffffffff16565b846002018190555061274a612737600b54612729848860020154613a5690919063ffffffff16565b613a1f90919063ffffffff16565b8560040154613a6c90919063ffffffff16565b84600401819055504284600501819055508360000160019054906101000a900473ffffffffffffffffffffffffffffffffffffffff1673ffffffffffffffffffffffffffffffffffffffff167fb5d054d0917f6f863e4e041e010caf126ba684d1733b4075d6185e51d55602818386600201546040516127cb9291906152fc565b60405180910390a2600060036000600160009054906101000a900473ffffffffffffffffffffffffffffffffffffffff1673ffffffffffffffffffffffffffffffffffffffff1673ffffffffffffffffffffffffffffffffffffffff16815260200190815260200160002090506000600560003373ffffffffffffffffffffffffffffffffffffffff1673ffffffffffffffffffffffffffffffffffffffff1681526020019081526020016000206000600160009054906101000a900473ffffffffffffffffffffffffffffffffffffffff1673ffffffffffffffffffffffffffffffffffffffff1673ffffffffffffffffffffffffffffffffffffffff168152602001908152602001600020905060016002811115612914577f4e487b7100000000000000000000000000000000000000000000000000000000600052602160045260246000fd5b8260000160009054906101000a900460ff16600281111561295e577f4e487b7100000000000000000000000000000000000000000000000000000000600052602160045260246000fd5b1461299e576040517f08c379a000000000000000000000000000000000000000000000000000000000815260040161299590615278565b60405180910390fd5b6129cb8260000160019054906101000a900473ffffffffffffffffffffffffffffffffffffffff16611d29565b871115612a0d576040517f08c379a0000000000000000000000000000000000000000000000000000000008152600401612a04906150f8565b60405180910390fd5b6000612a3d8360000160019054906101000a900473ffffffffffffffffffffffffffffffffffffffff1689613fb1565b9050612a56888460020154613a6c90919063ffffffff16565b8360020181905550612a75818460030154613a6c90919063ffffffff16565b8360030181905550612a94818360010154613a6c90919063ffffffff16565b8260010181905550600260009054906101000a900473ffffffffffffffffffffffffffffffffffffffff1673ffffffffffffffffffffffffffffffffffffffff1663b2d34847600160009054906101000a900473ffffffffffffffffffffffffffffffffffffffff16338b6040518463ffffffff1660e01b8152600401612b1d93929190614e0b565b600060405180830381600087803b158015612b3757600080fd5b505af1158015612b4b573d6000803e3d6000fd5b50505050612b5833610eda565b612b97576040517f08c379a0000000000000000000000000000000000000000000000000000000008152600401612b8e90615098565b60405180910390fd5b3373ffffffffffffffffffffffffffffffffffffffff16600160009054906101000a900473ffffffffffffffffffffffffffffffffffffffff1673ffffffffffffffffffffffffffffffffffffffff167fc1561b330e73faa7d5d1ac03c968d8f359b0191ccdb9cc002cf7d8eb6ae038cb838b604051612c189291906152fc565b60405180910390a35050505050505050565b600080600080600080600080600060036000600160009054906101000a900473ffffffffffffffffffffffffffffffffffffffff1673ffffffffffffffffffffffffffffffffffffffff1673ffffffffffffffffffffffffffffffffffffffff16815260200190815260200160002090508060000160009054906101000a900460ff1698508060000160019054906101000a900473ffffffffffffffffffffffffffffffffffffffff1697508060010160009054906101000a900473ffffffffffffffffffffffffffffffffffffffff1696508060020154955080600301549450612d36600160009054906101000a900473ffffffffffffffffffffffffffffffffffffffff16612235565b9350612d63600160009054906101000a900473ffffffffffffffffffffffffffffffffffffffff16611d29565b925080600501549150509091929394959697565b612d7f613b0b565b73ffffffffffffffffffffffffffffffffffffffff16612d9d611ddd565b73ffffffffffffffffffffffffffffffffffffffff1614612df3576040517f08c379a0000000000000000000000000000000000000000000000000000000008152600401612dea906151b8565b60405180910390fd5b600073ffffffffffffffffffffffffffffffffffffffff168173ffffffffffffffffffffffffffffffffffffffff161415612e63576040517f08c379a0000000000000000000000000000000000000000000000000000000008152600401612e5a906150b8565b60405180910390fd5b612e6c81613b13565b50565b6060600060036000600160009054906101000a900473ffffffffffffffffffffffffffffffffffffffff1673ffffffffffffffffffffffffffffffffffffffff1673ffffffffffffffffffffffffffffffffffffffff168152602001908152602001600020905060008160010160009054906101000a900473ffffffffffffffffffffffffffffffffffffffff1673ffffffffffffffffffffffffffffffffffffffff1663a57967858360020154612f4a8560000160019054906101000a900473ffffffffffffffffffffffffffffffffffffffff16612235565b6040518363ffffffff1660e01b8152600401612f679291906152fc565b60206040518083038186803b158015612f7f57600080fd5b505afa158015612f93573d6000803e3d6000fd5b505050506040513d601f19601f82011682018060405250810190612fb79190614931565b90506000612fca828460050154426139c0565b9050600083600201549050612fec846002015483613a1f90919063ffffffff16565b8460020181905550613035613022600b54613014848860020154613a5690919063ffffffff16565b613a1f90919063ffffffff16565b8560040154613a6c90919063ffffffff16565b84600401819055504284600501819055508360000160019054906101000a900473ffffffffffffffffffffffffffffffffffffffff1673ffffffffffffffffffffffffffffffffffffffff167fb5d054d0917f6f863e4e041e010caf126ba684d1733b4075d6185e51d55602818386600201546040516130b69291906152fc565b60405180910390a26000600460008973ffffffffffffffffffffffffffffffffffffffff1673ffffffffffffffffffffffffffffffffffffffff168152602001908152602001600020905060008160000160019054906101000a900473ffffffffffffffffffffffffffffffffffffffff1673ffffffffffffffffffffffffffffffffffffffff166370a08231336040518263ffffffff1660e01b81526004016131609190614df0565b60206040518083038186803b15801561317857600080fd5b505afa15801561318c573d6000803e3d6000fd5b505050506040513d601f19601f820116820180604052508101906131b09190614931565b9050600160028111156131ec577f4e487b7100000000000000000000000000000000000000000000000000000000600052602160045260246000fd5b8260000160009054906101000a900460ff166002811115613236577f4e487b7100000000000000000000000000000000000000000000000000000000600052602160045260246000fd5b14613276576040517f08c379a000000000000000000000000000000000000000000000000000000000815260040161326d90615198565b60405180910390fd5b600088116132b9576040517f08c379a00000000000000000000000000000000000000000000000000000000081526004016132b090615298565b60405180910390fd5b6000889050818111156132ca578190505b8260000160019054906101000a900473ffffffffffffffffffffffffffffffffffffffff1673ffffffffffffffffffffffffffffffffffffffff16639dc29fac33836040518363ffffffff1660e01b8152600401613329929190614e79565b600060405180830381600087803b15801561334357600080fd5b505af1158015613357573d6000803e3d6000fd5b50505050600260009054906101000a900473ffffffffffffffffffffffffffffffffffffffff1673ffffffffffffffffffffffffffffffffffffffff1663808cb6138b33846040518463ffffffff1660e01b81526004016133ba93929190614e0b565b600060405180830381600087803b1580156133d457600080fd5b505af11580156133e8573d6000803e3d6000fd5b505050506133f533610eda565b613434576040517f08c379a000000000000000000000000000000000000000000000000000000000815260040161342b90615178565b60405180910390fd5b3373ffffffffffffffffffffffffffffffffffffffff168a73ffffffffffffffffffffffffffffffffffffffff167f39232a7eed2ad0ea7afab6b1edffa01bbd4a635bf106ac38ec5261d8d691f4a08360405161349191906152b8565b60405180910390a35050505050505092915050565b600b5481565b6134b4613b0b565b73ffffffffffffffffffffffffffffffffffffffff166134d2611ddd565b73ffffffffffffffffffffffffffffffffffffffff1614613528576040517f08c379a000000000000000000000000000000000000000000000000000000000815260040161351f906151b8565b60405180910390fd5b6000600460008473ffffffffffffffffffffffffffffffffffffffff1673ffffffffffffffffffffffffffffffffffffffff1681526020019081526020016000209050818160000160006101000a81548160ff021916908360028111156135b8577f4e487b7100000000000000000000000000000000000000000000000000000000600052602160045260246000fd5b0217905550505050565b60008060006135d084610694565b905060005b6008805490508110156138ec5760006008828154811061361e577f4e487b7100000000000000000000000000000000000000000000000000000000600052603260045260246000fd5b9060005260206000200160009054906101000a900473ffffffffffffffffffffffffffffffffffffffff1690506000600460008373ffffffffffffffffffffffffffffffffffffffff1673ffffffffffffffffffffffffffffffffffffffff168152602001908152602001600020905060008061369b89856124a1565b91509150600082146138d55760008360010160009054906101000a900473ffffffffffffffffffffffffffffffffffffffff1673ffffffffffffffffffffffffffffffffffffffff166304366b586040518163ffffffff1660e01b815260040160206040518083038186803b15801561371357600080fd5b505afa158015613727573d6000803e3d6000fd5b505050506040513d601f19601f8201168201806040525081019061374b9190614931565b90506000600a60009054906101000a900473ffffffffffffffffffffffffffffffffffffffff1673ffffffffffffffffffffffffffffffffffffffff1663524f3889866003016040518263ffffffff1660e01b81526004016137ad9190615076565b604080518083038186803b1580156137c457600080fd5b505afa1580156137d8573d6000803e3d6000fd5b505050506040513d601f19601f820116820180604052508101906137fc91906148cc565b506fffffffffffffffffffffffffffffffff16905060008111613854576040517f08c379a000000000000000000000000000000000000000000000000000000000815260040161384b906151f8565b60405180910390fd5b6000613880856138726402540be4008561399490919063ffffffff16565b613a1f90919063ffffffff16565b9050613895818c613a6c90919063ffffffff16565b9a506000831180156138a45750835b156138d1576138ce6138bf8483613a1f90919063ffffffff16565b8b613a6c90919063ffffffff16565b99505b5050505b5050505080806138e490615755565b9150506135d5565b509193909250565b600080600360008573ffffffffffffffffffffffffffffffffffffffff1673ffffffffffffffffffffffffffffffffffffffff168152602001908152602001600020905060008160020154148061394f575060008160030154145b1561395d578291505061398e565b61398a816003015461397c83600201548661399490919063ffffffff16565b61405190919063ffffffff16565b9150505b92915050565b600081836139a2919061548b565b905092915050565b600081836139b8919061545a565b905092915050565b6000613a166139cd6140d2565b613a086301e133806139fa6139eb8888613a5690919063ffffffff16565b89613a1f90919063ffffffff16565b6140e290919063ffffffff16565b613a6c90919063ffffffff16565b90509392505050565b6000613a4e670de0b6b3a7640000613a40848661399490919063ffffffff16565b6139aa90919063ffffffff16565b905092915050565b60008183613a6491906154e5565b905092915050565b60008183613a7a9190615404565b905092915050565b613b05846323b872dd60e01b858585604051602401613aa393929190614e42565b604051602081830303815290604052907bffffffffffffffffffffffffffffffffffffffffffffffffffffffff19166020820180517bffffffffffffffffffffffffffffffffffffffffffffffffffffffff8381831617835250505050614119565b50505050565b600033905090565b60008060009054906101000a900473ffffffffffffffffffffffffffffffffffffffff169050816000806101000a81548173ffffffffffffffffffffffffffffffffffffffff021916908373ffffffffffffffffffffffffffffffffffffffff1602179055508173ffffffffffffffffffffffffffffffffffffffff168173ffffffffffffffffffffffffffffffffffffffff167f8be0079c531659141344cd1fd0a4f28419497f9722a3daafe3b4186f6b6457e060405160405180910390a35050565b600060036000600160009054906101000a900473ffffffffffffffffffffffffffffffffffffffff1673ffffffffffffffffffffffffffffffffffffffff1673ffffffffffffffffffffffffffffffffffffffff16815260200190815260200160002090506000600560003373ffffffffffffffffffffffffffffffffffffffff1673ffffffffffffffffffffffffffffffffffffffff1681526020019081526020016000206000600160009054906101000a900473ffffffffffffffffffffffffffffffffffffffff1673ffffffffffffffffffffffffffffffffffffffff1673ffffffffffffffffffffffffffffffffffffffff168152602001908152602001600020905060016002811115613d18577f4e487b7100000000000000000000000000000000000000000000000000000000600052602160045260246000fd5b8260000160009054906101000a900460ff166002811115613d62577f4e487b7100000000000000000000000000000000000000000000000000000000600052602160045260246000fd5b1480613dee5750600280811115613da2577f4e487b7100000000000000000000000000000000000000000000000000000000600052602160045260246000fd5b8260000160009054906101000a900460ff166002811115613dec577f4e487b7100000000000000000000000000000000000000000000000000000000600052602160045260246000fd5b145b613e2d576040517f08c379a0000000000000000000000000000000000000000000000000000000008152600401613e2490615118565b60405180910390fd5b8060010154831115613e4157806001015492505b6000613e4d85856138f4565b9050613e66818460020154613a5690919063ffffffff16565b8360020181905550613e85848460030154613a5690919063ffffffff16565b8360030181905550613ea4848360010154613a5690919063ffffffff16565b8260010181905550613f1f33600260009054906101000a900473ffffffffffffffffffffffffffffffffffffffff16838660000160019054906101000a900473ffffffffffffffffffffffffffffffffffffffff1673ffffffffffffffffffffffffffffffffffffffff16613a82909392919063ffffffff16565b3373ffffffffffffffffffffffffffffffffffffffff168360000160019054906101000a900473ffffffffffffffffffffffffffffffffffffffff1673ffffffffffffffffffffffffffffffffffffffff167fe4a1ae657f49cb1fb1c7d3a94ae6093565c4c8c0e03de488f79c377c3c3a24e08684604051613fa29291906152fc565b60405180910390a35050505050565b600080600360008573ffffffffffffffffffffffffffffffffffffffff1673ffffffffffffffffffffffffffffffffffffffff168152602001908152602001600020905060008160020154148061400c575060008160030154145b1561401a578291505061404b565b614047816002015461403983600301548661399490919063ffffffff16565b61405190919063ffffffff16565b9150505b92915050565b6000808211614095576040517f08c379a000000000000000000000000000000000000000000000000000000000815260040161408c90615238565b60405180910390fd5b600082846140a3919061545a565b9050600083856140b3919061579e565b146140c8576001816140c59190615404565b90505b8091505092915050565b6000670de0b6b3a7640000905090565b600061411182614103670de0b6b3a76400008661399490919063ffffffff16565b6139aa90919063ffffffff16565b905092915050565b600061417b826040518060400160405280602081526020017f5361666545524332303a206c6f772d6c6576656c2063616c6c206661696c65648152508573ffffffffffffffffffffffffffffffffffffffff166141e09092919063ffffffff16565b90506000815111156141db578080602001905181019061419b91906146f5565b6141da576040517f08c379a00000000000000000000000000000000000000000000000000000000081526004016141d190615258565b60405180910390fd5b5b505050565b60606141ef84846000856141f8565b90509392505050565b60608247101561423d576040517f08c379a000000000000000000000000000000000000000000000000000000000815260040161423490615138565b60405180910390fd5b6142468561430c565b614285576040517f08c379a000000000000000000000000000000000000000000000000000000000815260040161427c90615218565b60405180910390fd5b6000808673ffffffffffffffffffffffffffffffffffffffff1685876040516142ae9190614d95565b60006040518083038185875af1925050503d80600081146142eb576040519150601f19603f3d011682016040523d82523d6000602084013e6142f0565b606091505b509150915061430082828661432f565b92505050949350505050565b6000808273ffffffffffffffffffffffffffffffffffffffff163b119050919050565b6060831561433f5782905061438f565b6000835111156143525782518084602001fd5b816040517f08c379a0000000000000000000000000000000000000000000000000000000008152600401614386919061500f565b60405180910390fd5b9392505050565b8280546143a2906156f2565b90600052602060002090601f0160209004810192826143c4576000855561440b565b82601f106143dd57805160ff191683800117855561440b565b8280016001018555821561440b579182015b8281111561440a5782518255916020019190600101906143ef565b5b509050614418919061441c565b5090565b5b8082111561443557600081600090555060010161441d565b5090565b600061444c61444784615381565b61535c565b90508281526020810184848401111561446457600080fd5b61446f8482856156b0565b509392505050565b600061448a61448584615381565b61535c565b9050828152602081018484840111156144a257600080fd5b6144ad8482856156bf565b509392505050565b6000813590506144c481615db2565b92915050565b6000815190506144d981615dc9565b92915050565b6000813590506144ee81615de0565b92915050565b60008135905061450381615df7565b92915050565b60008135905061451881615e0e565b92915050565b60008135905061452d81615e25565b92915050565b60008135905061454281615e3c565b92915050565b60008151905061455781615e53565b92915050565b60008135905061456c81615e6a565b92915050565b600082601f83011261458357600080fd5b8135614593848260208601614439565b91505092915050565b600082601f8301126145ad57600080fd5b81516145bd848260208601614477565b91505092915050565b6000815190506145d581615e7a565b92915050565b6000813590506145ea81615e91565b92915050565b6000815190506145ff81615e91565b92915050565b60006020828403121561461757600080fd5b6000614625848285016144b5565b91505092915050565b60008060006060848603121561464357600080fd5b6000614651868287016144b5565b9350506020614662868287016144b5565b9250506040614673868287016144df565b9150509250925092565b6000806040838503121561469057600080fd5b600061469e858286016144b5565b92505060206146af858286016144f4565b9150509250929050565b600080604083850312156146cc57600080fd5b60006146da858286016144b5565b92505060206146eb858286016145db565b9150509250929050565b60006020828403121561470757600080fd5b6000614715848285016144ca565b91505092915050565b6000806040838503121561473157600080fd5b600061473f858286016144f4565b925050602061475085828601614533565b9150509250929050565b60008060006060848603121561476f57600080fd5b600061477d868287016144f4565b935050602061478e86828701614533565b925050604084013567ffffffffffffffff8111156147ab57600080fd5b6147b786828701614572565b9150509250925092565b600080604083850312156147d457600080fd5b60006147e2858286016144f4565b92505060206147f38582860161455d565b9150509250929050565b6000806040838503121561481057600080fd5b600061481e85828601614509565b925050602061482f858286016145db565b9150509250929050565b60006020828403121561484b57600080fd5b60006148598482850161451e565b91505092915050565b60006020828403121561487457600080fd5b600061488284828501614548565b91505092915050565b60006020828403121561489d57600080fd5b600082015167ffffffffffffffff8111156148b757600080fd5b6148c38482850161459c565b91505092915050565b600080604083850312156148df57600080fd5b60006148ed858286016145c6565b92505060206148fe858286016145c6565b9150509250929050565b60006020828403121561491a57600080fd5b6000614928848285016145db565b91505092915050565b60006020828403121561494357600080fd5b6000614951848285016145f0565b91505092915050565b6149638161552b565b82525050565b61497281615519565b82525050565b6149818161553d565b82525050565b6000614992826153c7565b61499c81856153dd565b93506149ac8185602086016156bf565b80840191505092915050565b6149c18161560e565b82525050565b6149d081615632565b82525050565b6149df81615656565b82525050565b6149ee8161567a565b82525050565b6149fd8161569e565b82525050565b6000614a0e826153d2565b614a1881856153e8565b9350614a288185602086016156bf565b614a31816158ba565b840191505092915050565b6000614a47826153d2565b614a5181856153f9565b9350614a618185602086016156bf565b80840191505092915050565b60008154614a7a816156f2565b614a8481866153e8565b94506001821660008114614a9f5760018114614ab157614ae4565b60ff1983168652602086019350614ae4565b614aba856153b2565b60005b83811015614adc57815481890152600182019150602081019050614abd565b808801955050505b50505092915050565b6000614afa6004836153f9565b9150614b05826158cb565b600482019050919050565b6000614b1d602d836153e8565b9150614b28826158f4565b604082019050919050565b6000614b406026836153e8565b9150614b4b82615943565b604082019050919050565b6000614b636028836153e8565b9150614b6e82615992565b604082019050919050565b6000614b866031836153e8565b9150614b91826159e1565b604082019050919050565b6000614ba96018836153e8565b9150614bb482615a30565b602082019050919050565b6000614bcc6026836153e8565b9150614bd782615a59565b604082019050919050565b6000614bef6033836153e8565b9150614bfa82615aa8565b604082019050919050565b6000614c126026836153e8565b9150614c1d82615af7565b604082019050919050565b6000614c356036836153e8565b9150614c4082615b46565b604082019050919050565b6000614c586020836153e8565b9150614c6382615b95565b602082019050919050565b6000614c7b6004836153f9565b9150614c8682615bbe565b600482019050919050565b6000614c9e6021836153e8565b9150614ca982615be7565b604082019050919050565b6000614cc16019836153e8565b9150614ccc82615c36565b602082019050919050565b6000614ce4601d836153e8565b9150614cef82615c5f565b602082019050919050565b6000614d076018836153e8565b9150614d1282615c88565b602082019050919050565b6000614d2a602a836153e8565b9150614d3582615cb1565b604082019050919050565b6000614d4d6034836153e8565b9150614d5882615d00565b604082019050919050565b6000614d706022836153e8565b9150614d7b82615d4f565b604082019050919050565b614d8f81615604565b82525050565b6000614da18284614987565b915081905092915050565b6000614db782614aed565b9150614dc38284614a3c565b915081905092915050565b6000614dd982614c6e565b9150614de58284614a3c565b915081905092915050565b6000602082019050614e056000830184614969565b92915050565b6000606082019050614e206000830186614969565b614e2d602083018561495a565b614e3a6040830184614d86565b949350505050565b6000606082019050614e576000830186614969565b614e646020830185614969565b614e716040830184614d86565b949350505050565b6000604082019050614e8e6000830185614969565b614e9b6020830184614d86565b9392505050565b6000602082019050614eb76000830184614978565b92915050565b6000602082019050614ed260008301846149b8565b92915050565b6000602082019050614eed60008301846149c7565b92915050565b6000602082019050614f0860008301846149d6565b92915050565b6000602082019050614f2360008301846149e5565b92915050565b600060c082019050614f3e60008301896149f4565b614f4b6020830188614969565b614f586040830187614969565b614f656060830186614d86565b614f726080830185614d86565b81810360a0830152614f848184614a03565b9050979650505050505050565b600061010082019050614fa7600083018b6149f4565b614fb4602083018a614969565b614fc16040830189614969565b614fce6060830188614d86565b614fdb6080830187614d86565b614fe860a0830186614d86565b614ff560c0830185614d86565b61500260e0830184614d86565b9998505050505050505050565b600060208201905081810360008301526150298184614a03565b905092915050565b6000606082019050818103600083015261504b8186614a03565b9050818103602083015261505f8185614a03565b905061506e60408301846149d6565b949350505050565b600060208201905081810360008301526150908184614a6d565b905092915050565b600060208201905081810360008301526150b181614b10565b9050919050565b600060208201905081810360008301526150d181614b33565b9050919050565b600060208201905081810360008301526150f181614b56565b9050919050565b6000602082019050818103600083015261511181614b79565b9050919050565b6000602082019050818103600083015261513181614b9c565b9050919050565b6000602082019050818103600083015261515181614bbf565b9050919050565b6000602082019050818103600083015261517181614be2565b9050919050565b6000602082019050818103600083015261519181614c05565b9050919050565b600060208201905081810360008301526151b181614c28565b9050919050565b600060208201905081810360008301526151d181614c4b565b9050919050565b600060208201905081810360008301526151f181614c91565b9050919050565b6000602082019050818103600083015261521181614cb4565b9050919050565b6000602082019050818103600083015261523181614cd7565b9050919050565b6000602082019050818103600083015261525181614cfa565b9050919050565b6000602082019050818103600083015261527181614d1d565b9050919050565b6000602082019050818103600083015261529181614d40565b9050919050565b600060208201905081810360008301526152b181614d63565b9050919050565b60006020820190506152cd6000830184614d86565b92915050565b60006040820190506152e86000830185614d86565b6152f56020830184614978565b9392505050565b60006040820190506153116000830185614d86565b61531e6020830184614d86565b9392505050565b600060608201905061533a6000830186614d86565b6153476020830185614d86565b6153546040830184614d86565b949350505050565b6000615366615377565b90506153728282615724565b919050565b6000604051905090565b600067ffffffffffffffff82111561539c5761539b61588b565b5b6153a5826158ba565b9050602081019050919050565b60008190508160005260206000209050919050565b600081519050919050565b600081519050919050565b600081905092915050565b600082825260208201905092915050565b600081905092915050565b600061540f82615604565b915061541a83615604565b9250827fffffffffffffffffffffffffffffffffffffffffffffffffffffffffffffffff0382111561544f5761544e6157cf565b5b828201905092915050565b600061546582615604565b915061547083615604565b9250826154805761547f6157fe565b5b828204905092915050565b600061549682615604565b91506154a183615604565b9250817fffffffffffffffffffffffffffffffffffffffffffffffffffffffffffffffff04831182151516156154da576154d96157cf565b5b828202905092915050565b60006154f082615604565b91506154fb83615604565b92508282101561550e5761550d6157cf565b5b828203905092915050565b6000615524826155e4565b9050919050565b6000615536826155e4565b9050919050565b60008115159050919050565b600061555482615519565b9050919050565b600061556682615519565b9050919050565b600061557882615519565b9050919050565b600061558a82615519565b9050919050565b600061559c82615519565b9050919050565b60006155ae82615519565b9050919050565b60008190506155c382615d9e565b919050565b60006fffffffffffffffffffffffffffffffff82169050919050565b600073ffffffffffffffffffffffffffffffffffffffff82169050919050565b6000819050919050565b600061561982615620565b9050919050565b600061562b826155e4565b9050919050565b600061563d82615644565b9050919050565b600061564f826155e4565b9050919050565b600061566182615668565b9050919050565b6000615673826155e4565b9050919050565b60006156858261568c565b9050919050565b6000615697826155e4565b9050919050565b60006156a9826155b5565b9050919050565b82818337600083830152505050565b60005b838110156156dd5780820151818401526020810190506156c2565b838111156156ec576000848401525b50505050565b6000600282049050600182168061570a57607f821691505b6020821081141561571e5761571d61585c565b5b50919050565b61572d826158ba565b810181811067ffffffffffffffff8211171561574c5761574b61588b565b5b80604052505050565b600061576082615604565b91507fffffffffffffffffffffffffffffffffffffffffffffffffffffffffffffffff821415615793576157926157cf565b5b600182019050919050565b60006157a982615604565b91506157b483615604565b9250826157c4576157c36157fe565b5b828206905092915050565b7f4e487b7100000000000000000000000000000000000000000000000000000000600052601160045260246000fd5b7f4e487b7100000000000000000000000000000000000000000000000000000000600052601260045260246000fd5b7f4e487b7100000000000000000000000000000000000000000000000000000000600052602160045260246000fd5b7f4e487b7100000000000000000000000000000000000000000000000000000000600052602260045260246000fd5b7f4e487b7100000000000000000000000000000000000000000000000000000000600052604160045260246000fd5b6000601f19601f8301169050919050565b7f4261736500000000000000000000000000000000000000000000000000000000600082015250565b7f6163636f756e74206973206e6f74206865616c7468792e20736f72727920796f60008201527f752063616e7420626f72726f7700000000000000000000000000000000000000602082015250565b7f4f776e61626c653a206e6577206f776e657220697320746865207a65726f206160008201527f6464726573730000000000000000000000000000000000000000000000000000602082015250565b7f7468697320706f6f6c20616c726561647920657869737473206f6e206c656e6460008201527f696e6720706f6f6c000000000000000000000000000000000000000000000000602082015250565b7f616d6f756e74206973206d6f7265207468616e20617661696c61626c6520626160008201527f736575736420696e207468652074616e6b000000000000000000000000000000602082015250565b7f63616e277420726570617920746f207468697320706f6f6c0000000000000000600082015250565b7f416464726573733a20696e73756666696369656e742062616c616e636520666f60008201527f722063616c6c0000000000000000000000000000000000000000000000000000602082015250565b7f63616e6e6f74206465706f73697420746f207468697320706f6f6c2c2063686560008201527f636b2074686520706f6f6c732073746174757300000000000000000000000000602082015250565b7f6163636f756e74206973206e6f74206865616c7468792e2063616e277420776960008201527f7468647261770000000000000000000000000000000000000000000000000000602082015250565b7f63616e6e6f742077697468647261772066726f6d207468697320706f6f6c2c2060008201527f636865636b2074686520706f6f6c732073746174757300000000000000000000602082015250565b7f4f776e61626c653a2063616c6c6572206973206e6f7420746865206f776e6572600082015250565b7f4241534500000000000000000000000000000000000000000000000000000000600082015250565b7f6465706f73697420616d6f756e742073686f756c64206d6f7265207468616e2060008201527f3000000000000000000000000000000000000000000000000000000000000000602082015250565b7f746f6b656e2070726963652069736e277420636f727265637400000000000000600082015250565b7f416464726573733a2063616c6c20746f206e6f6e2d636f6e7472616374000000600082015250565b7f64697669646572206d757374206d6f7265207468616e20300000000000000000600082015250565b7f5361666545524332303a204552433230206f7065726174696f6e20646964206e60008201527f6f74207375636365656400000000000000000000000000000000000000000000602082015250565b7f636865636b207468652074616e6b207374617475732c20796f752063616e742060008201527f626f72726f7720617420746865206d6f6d656e74000000000000000000000000602082015250565b7f776974686472617720616d6f756e742073686f756c64206d6f7265207468616e60008201527f2030000000000000000000000000000000000000000000000000000000000000602082015250565b60038110615daf57615dae61582d565b5b50565b615dbb81615519565b8114615dc657600080fd5b50565b615dd28161553d565b8114615ddd57600080fd5b50565b615de981615549565b8114615df457600080fd5b50565b615e008161555b565b8114615e0b57600080fd5b50565b615e178161556d565b8114615e2257600080fd5b50565b615e2e8161557f565b8114615e3957600080fd5b50565b615e4581615591565b8114615e5057600080fd5b50565b615e5c816155a3565b8114615e6757600080fd5b50565b60038110615e7757600080fd5b50565b615e83816155c8565b8114615e8e57600080fd5b50565b615e9a81615604565b8114615ea557600080fd5b5056fea26469706673582212208307ead8a25394fc3e79a6a4305aa1c3ccdc8a4ed0d6fe982c4f877bfed0c38a64736f6c63430008040033",
  "linkReferences": {},
  "deployedLinkReferences": {}
}