{
  "_format": "hh-sol-artifact-1",
  "contractName": "basecoll",
  "sourceName": "contracts/basecoll.sol",
  "abi": [
    {
      "inputs": [
        {
          "internalType": "string",
          "name": "_name",
          "type": "string"
        },
        {
          "internalType": "string",
          "name": "_symbol",
          "type": "string"
        },
        {
          "internalType": "contract BaseCore",
          "name": "_BaseCoreAddress",
          "type": "address"
        },
        {
          "internalType": "contract ERC20",
          "name": "_underlyingAsset",
          "type": "address"
        }
      ],
      "stateMutability": "nonpayable",
      "type": "constructor"
    },
    {
      "anonymous": false,
      "inputs": [
        {
          "indexed": true,
          "internalType": "address",
          "name": "owner",
          "type": "address"
        },
        {
          "indexed": true,
          "internalType": "address",
          "name": "spender",
          "type": "address"
        },
        {
          "indexed": false,
          "internalType": "uint256",
          "name": "value",
          "type": "uint256"
        }
      ],
      "name": "Approval",
      "type": "event"
    },
    {
      "anonymous": false,
      "inputs": [
        {
          "indexed": true,
          "internalType": "address",
          "name": "from",
          "type": "address"
        },
        {
          "indexed": true,
          "internalType": "address",
          "name": "to",
          "type": "address"
        },
        {
          "indexed": false,
          "internalType": "uint256",
          "name": "value",
          "type": "uint256"
        }
      ],
      "name": "Transfer",
      "type": "event"
    },
    {
      "inputs": [
        {
          "internalType": "address",
          "name": "owner",
          "type": "address"
        },
        {
          "internalType": "address",
          "name": "spender",
          "type": "address"
        }
      ],
      "name": "allowance",
      "outputs": [
        {
          "internalType": "uint256",
          "name": "",
          "type": "uint256"
        }
      ],
      "stateMutability": "view",
      "type": "function"
    },
    {
      "inputs": [
        {
          "internalType": "address",
          "name": "spender",
          "type": "address"
        },
        {
          "internalType": "uint256",
          "name": "amount",
          "type": "uint256"
        }
      ],
      "name": "approve",
      "outputs": [
        {
          "internalType": "bool",
          "name": "",
          "type": "bool"
        }
      ],
      "stateMutability": "nonpayable",
      "type": "function"
    },
    {
      "inputs": [
        {
          "internalType": "address",
          "name": "account",
          "type": "address"
        }
      ],
      "name": "balanceOf",
      "outputs": [
        {
          "internalType": "uint256",
          "name": "",
          "type": "uint256"
        }
      ],
      "stateMutability": "view",
      "type": "function"
    },
    {
      "inputs": [
        {
          "internalType": "address",
          "name": "_account",
          "type": "address"
        },
        {
          "internalType": "uint256",
          "name": "_amount",
          "type": "uint256"
        }
      ],
      "name": "burn",
      "outputs": [],
      "stateMutability": "nonpayable",
      "type": "function"
    },
    {
      "inputs": [],
      "name": "decimals",
      "outputs": [
        {
          "internalType": "uint8",
          "name": "",
          "type": "uint8"
        }
      ],
      "stateMutability": "view",
      "type": "function"
    },
    {
      "inputs": [
        {
          "internalType": "address",
          "name": "spender",
          "type": "address"
        },
        {
          "internalType": "uint256",
          "name": "subtractedValue",
          "type": "uint256"
        }
      ],
      "name": "decreaseAllowance",
      "outputs": [
        {
          "internalType": "bool",
          "name": "",
          "type": "bool"
        }
      ],
      "stateMutability": "nonpayable",
      "type": "function"
    },
    {
      "inputs": [
        {
          "internalType": "address",
          "name": "spender",
          "type": "address"
        },
        {
          "internalType": "uint256",
          "name": "addedValue",
          "type": "uint256"
        }
      ],
      "name": "increaseAllowance",
      "outputs": [
        {
          "internalType": "bool",
          "name": "",
          "type": "bool"
        }
      ],
      "stateMutability": "nonpayable",
      "type": "function"
    },
    {
      "inputs": [
        {
          "internalType": "address",
          "name": "_account",
          "type": "address"
        },
        {
          "internalType": "uint256",
          "name": "_amount",
          "type": "uint256"
        }
      ],
      "name": "mint",
      "outputs": [],
      "stateMutability": "nonpayable",
      "type": "function"
    },
    {
      "inputs": [],
      "name": "name",
      "outputs": [
        {
          "internalType": "string",
          "name": "",
          "type": "string"
        }
      ],
      "stateMutability": "view",
      "type": "function"
    },
    {
      "inputs": [],
      "name": "symbol",
      "outputs": [
        {
          "internalType": "string",
          "name": "",
          "type": "string"
        }
      ],
      "stateMutability": "view",
      "type": "function"
    },
    {
      "inputs": [],
      "name": "totalSupply",
      "outputs": [
        {
          "internalType": "uint256",
          "name": "",
          "type": "uint256"
        }
      ],
      "stateMutability": "view",
      "type": "function"
    },
    {
      "inputs": [
        {
          "internalType": "address",
          "name": "to",
          "type": "address"
        },
        {
          "internalType": "uint256",
          "name": "amount",
          "type": "uint256"
        }
      ],
      "name": "transfer",
      "outputs": [
        {
          "internalType": "bool",
          "name": "",
          "type": "bool"
        }
      ],
      "stateMutability": "nonpayable",
      "type": "function"
    },
    {
      "inputs": [
        {
          "internalType": "address",
          "name": "from",
          "type": "address"
        },
        {
          "internalType": "address",
          "name": "to",
          "type": "address"
        },
        {
          "internalType": "uint256",
          "name": "amount",
          "type": "uint256"
        }
      ],
      "name": "transferFrom",
      "outputs": [
        {
          "internalType": "bool",
          "name": "",
          "type": "bool"
        }
      ],
      "stateMutability": "nonpayable",
      "type": "function"
    },
    {
      "inputs": [],
      "name": "underlyingAsset",
      "outputs": [
        {
          "internalType": "contract ERC20",
          "name": "",
          "type": "address"
        }
      ],
      "stateMutability": "view",
      "type": "function"
    }
  ],
  "bytecode": "0x60806040523480156200001157600080fd5b5060405162001e6238038062001e62833981810160405281019062000037919062000249565b8383816003908051906020019062000051929190620000f9565b5080600490805190602001906200006a929190620000f9565b50505081600560006101000a81548173ffffffffffffffffffffffffffffffffffffffff021916908373ffffffffffffffffffffffffffffffffffffffff16021790555080600660006101000a81548173ffffffffffffffffffffffffffffffffffffffff021916908373ffffffffffffffffffffffffffffffffffffffff16021790555050505050620004e7565b8280546200010790620003d8565b90600052602060002090601f0160209004810192826200012b576000855562000177565b82601f106200014657805160ff191683800117855562000177565b8280016001018555821562000177579182015b828111156200017657825182559160200191906001019062000159565b5b5090506200018691906200018a565b5090565b5b80821115620001a55760008160009055506001016200018b565b5090565b6000620001c0620001ba8462000310565b620002e7565b905082815260208101848484011115620001d957600080fd5b620001e6848285620003a2565b509392505050565b600081519050620001ff81620004b3565b92915050565b6000815190506200021681620004cd565b92915050565b600082601f8301126200022e57600080fd5b815162000240848260208601620001a9565b91505092915050565b600080600080608085870312156200026057600080fd5b600085015167ffffffffffffffff8111156200027b57600080fd5b62000289878288016200021c565b945050602085015167ffffffffffffffff811115620002a757600080fd5b620002b5878288016200021c565b9350506040620002c887828801620001ee565b9250506060620002db8782880162000205565b91505092959194509250565b6000620002f362000306565b90506200030182826200040e565b919050565b6000604051905090565b600067ffffffffffffffff8211156200032e576200032d62000473565b5b6200033982620004a2565b9050602081019050919050565b6000620003538262000382565b9050919050565b6000620003678262000346565b9050919050565b60006200037b8262000346565b9050919050565b600073ffffffffffffffffffffffffffffffffffffffff82169050919050565b60005b83811015620003c2578082015181840152602081019050620003a5565b83811115620003d2576000848401525b50505050565b60006002820490506001821680620003f157607f821691505b6020821081141562000408576200040762000444565b5b50919050565b6200041982620004a2565b810181811067ffffffffffffffff821117156200043b576200043a62000473565b5b80604052505050565b7f4e487b7100000000000000000000000000000000000000000000000000000000600052602260045260246000fd5b7f4e487b7100000000000000000000000000000000000000000000000000000000600052604160045260246000fd5b6000601f19601f8301169050919050565b620004be816200035a565b8114620004ca57600080fd5b50565b620004d8816200036e565b8114620004e457600080fd5b50565b61196b80620004f76000396000f3fe608060405234801561001057600080fd5b50600436106100ea5760003560e01c806370a082311161008c5780639dc29fac116100665780639dc29fac14610261578063a457c2d71461027d578063a9059cbb146102ad578063dd62ed3e146102dd576100ea565b806370a08231146101f55780637158da7c1461022557806395d89b4114610243576100ea565b806323b872dd116100c857806323b872dd1461015b578063313ce5671461018b57806339509351146101a957806340c10f19146101d9576100ea565b806306fdde03146100ef578063095ea7b31461010d57806318160ddd1461013d575b600080fd5b6100f761030d565b60405161010491906112b2565b60405180910390f35b6101276004803603810190610122919061106d565b61039f565b604051610134919061127c565b60405180910390f35b6101456103c2565b6040516101529190611414565b60405180910390f35b6101756004803603810190610170919061101e565b6103cc565b604051610182919061127c565b60405180910390f35b6101936103fb565b6040516101a0919061142f565b60405180910390f35b6101c360048036038101906101be919061106d565b610404565b6040516101d0919061127c565b60405180910390f35b6101f360048036038101906101ee919061106d565b6104ae565b005b61020f600480360381019061020a9190610fb9565b6104bc565b60405161021c9190611414565b60405180910390f35b61022d610504565b60405161023a9190611297565b60405180910390f35b61024b61052a565b60405161025891906112b2565b60405180910390f35b61027b6004803603810190610276919061106d565b6105bc565b005b6102976004803603810190610292919061106d565b6105ca565b6040516102a4919061127c565b60405180910390f35b6102c760048036038101906102c2919061106d565b6106b4565b6040516102d4919061127c565b60405180910390f35b6102f760048036038101906102f29190610fe2565b6106d7565b6040516103049190611414565b60405180910390f35b60606003805461031c9061159c565b80601f01602080910402602001604051908101604052809291908181526020018280546103489061159c565b80156103955780601f1061036a57610100808354040283529160200191610395565b820191906000526020600020905b81548152906001019060200180831161037857829003601f168201915b5050505050905090565b6000806103aa61075e565b90506103b7818585610766565b600191505092915050565b6000600254905090565b6000806103d761075e565b90506103e4858285610931565b6103ef8585856109bd565b60019150509392505050565b60006012905090565b60008061040f61075e565b90506104a3818585600160008673ffffffffffffffffffffffffffffffffffffffff1673ffffffffffffffffffffffffffffffffffffffff16815260200190815260200160002060008973ffffffffffffffffffffffffffffffffffffffff1673ffffffffffffffffffffffffffffffffffffffff1681526020019081526020016000205461049e9190611466565b610766565b600191505092915050565b6104b882826109cd565b5050565b60008060008373ffffffffffffffffffffffffffffffffffffffff1673ffffffffffffffffffffffffffffffffffffffff168152602001908152602001600020549050919050565b600660009054906101000a900473ffffffffffffffffffffffffffffffffffffffff1681565b6060600480546105399061159c565b80601f01602080910402602001604051908101604052809291908181526020018280546105659061159c565b80156105b25780601f10610587576101008083540402835291602001916105b2565b820191906000526020600020905b81548152906001019060200180831161059557829003601f168201915b5050505050905090565b6105c68282610b2d565b5050565b6000806105d561075e565b90506000600160008373ffffffffffffffffffffffffffffffffffffffff1673ffffffffffffffffffffffffffffffffffffffff16815260200190815260200160002060008673ffffffffffffffffffffffffffffffffffffffff1673ffffffffffffffffffffffffffffffffffffffff1681526020019081526020016000205490508381101561069b576040517f08c379a0000000000000000000000000000000000000000000000000000000008152600401610692906113d4565b60405180910390fd5b6106a88286868403610766565b60019250505092915050565b6000806106bf61075e565b90506106cc8185856109bd565b600191505092915050565b6000600160008473ffffffffffffffffffffffffffffffffffffffff1673ffffffffffffffffffffffffffffffffffffffff16815260200190815260200160002060008373ffffffffffffffffffffffffffffffffffffffff1673ffffffffffffffffffffffffffffffffffffffff16815260200190815260200160002054905092915050565b600033905090565b600073ffffffffffffffffffffffffffffffffffffffff168373ffffffffffffffffffffffffffffffffffffffff1614156107d6576040517f08c379a00000000000000000000000000000000000000000000000000000000081526004016107cd906113b4565b60405180910390fd5b600073ffffffffffffffffffffffffffffffffffffffff168273ffffffffffffffffffffffffffffffffffffffff161415610846576040517f08c379a000000000000000000000000000000000000000000000000000000000815260040161083d90611314565b60405180910390fd5b80600160008573ffffffffffffffffffffffffffffffffffffffff1673ffffffffffffffffffffffffffffffffffffffff16815260200190815260200160002060008473ffffffffffffffffffffffffffffffffffffffff1673ffffffffffffffffffffffffffffffffffffffff168152602001908152602001600020819055508173ffffffffffffffffffffffffffffffffffffffff168373ffffffffffffffffffffffffffffffffffffffff167f8c5be1e5ebec7d5bd14f71427d1e84f3dd0314c0f7b2291e5b200ac8c7c3b925836040516109249190611414565b60405180910390a3505050565b600061093d84846106d7565b90507fffffffffffffffffffffffffffffffffffffffffffffffffffffffffffffffff81146109b757818110156109a9576040517f08c379a00000000000000000000000000000000000000000000000000000000081526004016109a090611334565b60405180910390fd5b6109b68484848403610766565b5b50505050565b6109c8838383610d04565b505050565b600073ffffffffffffffffffffffffffffffffffffffff168273ffffffffffffffffffffffffffffffffffffffff161415610a3d576040517f08c379a0000000000000000000000000000000000000000000000000000000008152600401610a34906113f4565b60405180910390fd5b610a4960008383610f85565b8060026000828254610a5b9190611466565b92505081905550806000808473ffffffffffffffffffffffffffffffffffffffff1673ffffffffffffffffffffffffffffffffffffffff1681526020019081526020016000206000828254610ab09190611466565b925050819055508173ffffffffffffffffffffffffffffffffffffffff16600073ffffffffffffffffffffffffffffffffffffffff167fddf252ad1be2c89b69c2b068fc378daa952ba7f163c4a11628f55a4df523b3ef83604051610b159190611414565b60405180910390a3610b2960008383610f8a565b5050565b600073ffffffffffffffffffffffffffffffffffffffff168273ffffffffffffffffffffffffffffffffffffffff161415610b9d576040517f08c379a0000000000000000000000000000000000000000000000000000000008152600401610b9490611374565b60405180910390fd5b610ba982600083610f85565b60008060008473ffffffffffffffffffffffffffffffffffffffff1673ffffffffffffffffffffffffffffffffffffffff16815260200190815260200160002054905081811015610c2f576040517f08c379a0000000000000000000000000000000000000000000000000000000008152600401610c26906112f4565b60405180910390fd5b8181036000808573ffffffffffffffffffffffffffffffffffffffff1673ffffffffffffffffffffffffffffffffffffffff168152602001908152602001600020819055508160026000828254610c8691906114bc565b92505081905550600073ffffffffffffffffffffffffffffffffffffffff168373ffffffffffffffffffffffffffffffffffffffff167fddf252ad1be2c89b69c2b068fc378daa952ba7f163c4a11628f55a4df523b3ef84604051610ceb9190611414565b60405180910390a3610cff83600084610f8a565b505050565b600073ffffffffffffffffffffffffffffffffffffffff168373ffffffffffffffffffffffffffffffffffffffff161415610d74576040517f08c379a0000000000000000000000000000000000000000000000000000000008152600401610d6b90611394565b60405180910390fd5b600073ffffffffffffffffffffffffffffffffffffffff168273ffffffffffffffffffffffffffffffffffffffff161415610de4576040517f08c379a0000000000000000000000000000000000000000000000000000000008152600401610ddb906112d4565b60405180910390fd5b610def838383610f85565b60008060008573ffffffffffffffffffffffffffffffffffffffff1673ffffffffffffffffffffffffffffffffffffffff16815260200190815260200160002054905081811015610e75576040517f08c379a0000000000000000000000000000000000000000000000000000000008152600401610e6c90611354565b60405180910390fd5b8181036000808673ffffffffffffffffffffffffffffffffffffffff1673ffffffffffffffffffffffffffffffffffffffff16815260200190815260200160002081905550816000808573ffffffffffffffffffffffffffffffffffffffff1673ffffffffffffffffffffffffffffffffffffffff1681526020019081526020016000206000828254610f089190611466565b925050819055508273ffffffffffffffffffffffffffffffffffffffff168473ffffffffffffffffffffffffffffffffffffffff167fddf252ad1be2c89b69c2b068fc378daa952ba7f163c4a11628f55a4df523b3ef84604051610f6c9190611414565b60405180910390a3610f7f848484610f8a565b50505050565b505050565b505050565b600081359050610f9e81611907565b92915050565b600081359050610fb38161191e565b92915050565b600060208284031215610fcb57600080fd5b6000610fd984828501610f8f565b91505092915050565b60008060408385031215610ff557600080fd5b600061100385828601610f8f565b925050602061101485828601610f8f565b9150509250929050565b60008060006060848603121561103357600080fd5b600061104186828701610f8f565b935050602061105286828701610f8f565b925050604061106386828701610fa4565b9150509250925092565b6000806040838503121561108057600080fd5b600061108e85828601610f8f565b925050602061109f85828601610fa4565b9150509250929050565b6110b281611502565b82525050565b6110c181611545565b82525050565b60006110d28261144a565b6110dc8185611455565b93506110ec818560208601611569565b6110f58161162c565b840191505092915050565b600061110d602383611455565b91506111188261163d565b604082019050919050565b6000611130602283611455565b915061113b8261168c565b604082019050919050565b6000611153602283611455565b915061115e826116db565b604082019050919050565b6000611176601d83611455565b91506111818261172a565b602082019050919050565b6000611199602683611455565b91506111a482611753565b604082019050919050565b60006111bc602183611455565b91506111c7826117a2565b604082019050919050565b60006111df602583611455565b91506111ea826117f1565b604082019050919050565b6000611202602483611455565b915061120d82611840565b604082019050919050565b6000611225602583611455565b91506112308261188f565b604082019050919050565b6000611248601f83611455565b9150611253826118de565b602082019050919050565b6112678161152e565b82525050565b61127681611538565b82525050565b600060208201905061129160008301846110a9565b92915050565b60006020820190506112ac60008301846110b8565b92915050565b600060208201905081810360008301526112cc81846110c7565b905092915050565b600060208201905081810360008301526112ed81611100565b9050919050565b6000602082019050818103600083015261130d81611123565b9050919050565b6000602082019050818103600083015261132d81611146565b9050919050565b6000602082019050818103600083015261134d81611169565b9050919050565b6000602082019050818103600083015261136d8161118c565b9050919050565b6000602082019050818103600083015261138d816111af565b9050919050565b600060208201905081810360008301526113ad816111d2565b9050919050565b600060208201905081810360008301526113cd816111f5565b9050919050565b600060208201905081810360008301526113ed81611218565b9050919050565b6000602082019050818103600083015261140d8161123b565b9050919050565b6000602082019050611429600083018461125e565b92915050565b6000602082019050611444600083018461126d565b92915050565b600081519050919050565b600082825260208201905092915050565b60006114718261152e565b915061147c8361152e565b9250827fffffffffffffffffffffffffffffffffffffffffffffffffffffffffffffffff038211156114b1576114b06115ce565b5b828201905092915050565b60006114c78261152e565b91506114d28361152e565b9250828210156114e5576114e46115ce565b5b828203905092915050565b60006114fb8261150e565b9050919050565b60008115159050919050565b600073ffffffffffffffffffffffffffffffffffffffff82169050919050565b6000819050919050565b600060ff82169050919050565b600061155082611557565b9050919050565b60006115628261150e565b9050919050565b60005b8381101561158757808201518184015260208101905061156c565b83811115611596576000848401525b50505050565b600060028204905060018216806115b457607f821691505b602082108114156115c8576115c76115fd565b5b50919050565b7f4e487b7100000000000000000000000000000000000000000000000000000000600052601160045260246000fd5b7f4e487b7100000000000000000000000000000000000000000000000000000000600052602260045260246000fd5b6000601f19601f8301169050919050565b7f45524332303a207472616e7366657220746f20746865207a65726f206164647260008201527f6573730000000000000000000000000000000000000000000000000000000000602082015250565b7f45524332303a206275726e20616d6f756e7420657863656564732062616c616e60008201527f6365000000000000000000000000000000000000000000000000000000000000602082015250565b7f45524332303a20617070726f766520746f20746865207a65726f20616464726560008201527f7373000000000000000000000000000000000000000000000000000000000000602082015250565b7f45524332303a20696e73756666696369656e7420616c6c6f77616e6365000000600082015250565b7f45524332303a207472616e7366657220616d6f756e742065786365656473206260008201527f616c616e63650000000000000000000000000000000000000000000000000000602082015250565b7f45524332303a206275726e2066726f6d20746865207a65726f2061646472657360008201527f7300000000000000000000000000000000000000000000000000000000000000602082015250565b7f45524332303a207472616e736665722066726f6d20746865207a65726f20616460008201527f6472657373000000000000000000000000000000000000000000000000000000602082015250565b7f45524332303a20617070726f76652066726f6d20746865207a65726f2061646460008201527f7265737300000000000000000000000000000000000000000000000000000000602082015250565b7f45524332303a2064656372656173656420616c6c6f77616e63652062656c6f7760008201527f207a65726f000000000000000000000000000000000000000000000000000000602082015250565b7f45524332303a206d696e7420746f20746865207a65726f206164647265737300600082015250565b611910816114f0565b811461191b57600080fd5b50565b6119278161152e565b811461193257600080fd5b5056fea2646970667358221220124e7a824fca79a67e64a475dd4c4bfa59e57a863ff31dedc38cb27ef08ef3df64736f6c63430008040033",
  "linkReferences": {},
  "deployedLinkReferences": {}
}